:020000040000FA
:06080000DAEF14F0120013
:02080600C82800
:060808008BEF0CF0120062
:02080E00C250D6
:08081000020B01E0010E1200D1
:060818008BEF14F012004A
:02081E000200D6
:10082000322A0000C807000004000000060800008B
:08083000CE07000002000000E9
:0C08D400D9CFE6FFE1CFD9FFFD0EDB50CD
:1008E000AD6E1EEC11F0E552E7CFD9FF1200D9CF63
:1008F000E6FFE1CFD9FF080EE126DE6ADD6A200EB1
:10090000F36E020EF3CFDBFF030EDB6AFB0EDBCFD1
:100910002BF0FC0EDBCF2CF02C50000AE8AE02D0FE
:100920002C3405D0000ED8802B54000E2C545AE2E3
:10093000040EDB6A050EDB6AFD0EDBCF1DF0FE0E3A
:10094000DBCF1EF0060E1DC0DBFF070E1EC0DBFF57
:10095000060EDBCFE9FF070EDBCFEAFFEF500BE01F
:10096000040EDB2A050E01E3DB2A060EDB2A070E46
:1009700001E3DB2AEDD7040EDBCF2BF0050EDBCF36
:100980002CF0FB0EDBCF2DF0FC0EDBCF2EF02C502D
:100990002E18E8AE02D02E3404D02D502B5C2E50F1
:1009A0002C5805E3FB0EDB6AFC0EDB6A10D0040E4C
:1009B000DBCF2BF0050EDBCF2CF0D950FB0FE96E0F
:1009C000FF0EDA20EA6E2B50EE5E2C50ED5AF90E37
:1009D000DB50020B07E0300EF36E020EF3CFDBFFAD
:1009E000030EDB6AF90EDB50010B25E1FB0EDBCFBA
:1009F0002BF0FC0EDBCF2CF02C50000AE8AE02D01E
:100A00002C3405D0000ED8802B54000E2C5413E249
:100A1000020EDBCFE6FF030EDBCFE6FF5BDFE55226
:100A2000E552DF2A010E01E3DB2AFB0EDB06FC0E9A
:100A300001E2DB06DBD7FD0EDBCFE9FFFE0EDBCFED
:100A4000EAFFEF501CE0FD0EDBCFE9FFFE0EDBCF2F
:100A5000EAFFEFCF2BF02C6A2BBE2C682BC0E6FFF1
:100A60002CC0E6FF37DFE552E552DF2A010E01E335
:100A7000DB2AFD0EDB2AFE0E01E3DB2ADCD7FB0EB0
:100A8000DBCF2BF0FC0EDBCF2CF02C50000AE8AEB5
:100A900002D02C3405D0000ED8802B54000E2C54DC
:100AA00013E2020EDBCFE6FF030EDBCFE6FF12DF21
:100AB000E552E552DF2A010E01E3DB2AFB0EDB06DD
:100AC000FC0E01E2DB06DBD7DECF2BF0DDCF2CF016
:100AD0002BC0F3FF2CC0F4FF00D0D9CFE1FFE552CB
:100AE000E7CFD9FF1200D9CFE6FFE1CFD9FF0A0E39
:100AF000E126040EDB6A050EDB6A060EDB6A070ED2
:100B0000DB6AFD0EDBCF1DF0FE0EDBCF1EF0080E04
:100B10001DC0DBFF090E1EC0DBFF0701BE0E996F73
:100B2000EF0EAD6FD950FD0FE96EFF0EDA20EA6EC1
:100B3000EE50ED1019E1300E996F9A6BF50EDBCF88
:100B4000E6FFF60EDBCFE6FFF70EDBCFE6FFF80E93
:100B5000DBCFE6FF990EE66E070EE66EC8DEF56E99
:100B6000060EE15EF55026D1D950F90FE96EFF0E61
:100B7000DA20EA6EEE50ED102CE0D950FB0FE96E52
:100B8000FF0EDA20EA6E0A0EEE1801E1ED5021E1C7
:100B9000FD0EDBCF2BF0FE0EDBCF2CF00001800E24
:100BA0002C1517E0010EF36E040EF3CFDBFF050EDC
:100BB000DB6A1D681E68FD0EDBCF22F0FE0EDBCF68
:100BC00023F08CEC13F0080E1BC0DBFF090E1CC0D9
:100BD000DBFFAD0E2B6E070E2C6E2B06000E2C5A73
:100BE0002BC0DEFF2CC0DDFFDECFE9FFDDCFEAFF4B
:100BF000EF6AD950080FE96EDACFEAFFEE50ED1038
:100C000072E0080EDBCF1DF0090EDBCF1EF0FB0EED
:100C1000DBCF22F0FC0EDBCF23F0C4EC14F0020E8D
:100C200019C0DBFF030E1AC0DBFF020EDBCF2BF077
:100C3000030EDBCF2CF02C50000AE8AE02D0D89087
:100C400004D00A0E2B5C000E2C5817E3F30EDBCFFA
:100C50002BF0F40EDBCF2CF0300E2B5E000E2C5A56
:100C60000A0E2B5E000E2C5AD950020FE96EDACF15
:100C7000EAFF2B50EE262C50ED22300EE76E020ECE
:100C8000DBCF2BF0030EDBCF2CF0E7502B26000E32
:100C90002C22D9CFE9FFDACFEAFFEE06ED5AEECFEC
:100CA000F3FFEDCFF4FFF3CFE9FFF4CFEAFF2BC062
:100CB000EFFFFB0EDBCF2BF0FC0EDBCF2CF0D9507F
:100CC000080FE96EDACFEAFF2BC022F02CC023F028
:100CD000EECF1DF0EDCF1EF0C4EC14F01DC0EEFF02
:100CE0001EC0EDFF86D7D950040FE96EDACFEAFFB8
:100CF000EE50ED102FE0D950F70FE96EFF0EDA201D
:100D0000EA6EEE50ED1015E0F50EDB50020B11E02F
:100D10002D0EE66EE66ADEDDE552E552060EDB2AB2
:100D2000070E01E3DB2AF70EDB06F80E01E2DB0615
:100D300011D0D9CFE9FFDACFEAFFEE06000EED5A67
:100D4000EECFF3FFEDCFF4FFF3CFE9FFF4CFEAFFEF
:100D50002D0EEF6E060EDBCF2DF0070EDBCF2EF043
:100D60002DC0E6FF2EC0E6FFF50EDBCFE6FFF60E48
:100D7000DBCFE6FFF70EDBCFE6FFF80EDBCFE6FFBB
:100D8000DECFE6FFDDCFE6FFB2DDF56E060EE15EFB
:100D9000F550E552E7CF2EF0E552E7CF2DF02D507C
:100DA000F3242B6E2E50F4202C6E2BC0F3FF2CC09E
:100DB000F4FF00D0D9CFE1FFE552E7CFD9FF120011
:100DC000D9CFE6FFE1CFD9FF2E0EE1262C0EDB6A4C
:100DD0002D0EDB6AFD0EDBCFE9FFFE0EDBCFEAFF57
:100DE000EF5001E119D3FD0EDBCFE9FFFE0EDBCFA3
:100DF000EAFFEF50250801E0E0D2FD0EDB2AFE0EEF
:100E000001E3DB2A2A0EDB6A2B0EDB6AD950280F9E
:100E1000E96EDACFEAFFEE6AED6AFD0EDBCFE9FF9D
:100E2000FE0EDBCFEAFFEF5001E1F6D2FD0EDBCF85
:100E3000E9FFFE0EDBCFEAFFEF50250801E1BDD24E
:100E4000FD0EDBCFE9FFFE0EDBCFEAFFEF502D08F2
:100E50000CE1FD0EDB2AFE0E01E3DB2A010EF36E30
:100E60002A0EF3CFDBFF2B0EDB6AFD0EDBCFE9FF93
:100E7000FE0EDBCFEAFFEF5030080DE1FD0EDB2A5E
:100E8000FE0E01E3DB2AD9502A0FE96EDACFEAFF22
:100E9000EE82ED52EAD7FD0EDBCFE9FFFE0EDBCF8F
:100EA000EAFFEFCF2BF0300E2B5C30E3FD0EDBCFF3
:100EB000E9FFFE0EDBCFEAFFEF50390827E3D950F8
:100EC000280FE96EDACFEAFF0A0EEC02F3CFEDFF4E
:100ED000EF02F3CFEEFFF450ED26FD0EDBCFE9FF7E
:100EE000FE0EDBCFEAFFEF50D00F2B6E2C6AD950ED
:100EF000280FE96EDACFEAFF2B50EE262C50ED22B8
:100F0000FD0EDB2AFE0E01E3DB2AC5D7FD0EDBCF8B
:100F1000E9FFFE0EDBCFEAFFEF50730861E1D95025
:100F2000FB0FE96EFF0EDA20EA6EEECFF3FFEDCF96
:100F3000F4FF020EEE5E000EEF5AF3CFE9FFF4CF9E
:100F4000EAFFEECF2BF0EFCF2CF02D6A2BC0E6FF9F
:100F50002CC0E6FF2DC0E6FFD9CFE6FFDACFE6FFD3
:100F60003DEC14F0F56E050EE15EF550DF5015E135
:100F7000CEC72BF0CFC72CF02D6A2BC0E6FF2CC0BC
:100F8000E6FF2DC0E6FFD9CFE6FFDACFE6FF3DEC66
:100F900014F0F56E050EE15EF5502A0EDBCFE6FF8C
:100FA0002B0EDBCFE6FF280EDBCFE6FF290EDBCFD3
:100FB000E6FFD9CFE6FFDACFE6FF99DCF56E060E45
:100FC000E15EF550F3CF2BF0F4CF2CF0D9502C0F7D
:100FD000E96EDACFEAFF2B50EE262C50ED2216D226
:100FE000FD0EDBCFE9FFFE0EDBCFEAFFEF5064081A
:100FF0003EE1610EE66EE66A2A0EDBCFE6FF2B0EBF
:10100000DBCFE6FF280EDBCFE6FF290EDBCFE6FFC6
:10101000010EE66EE66A0A0EE66EE66AD950FB0F2E
:10102000E96EFF0EDA20EA6EEECFF3FFEDCFF4FFAC
:10103000020EEE5E000EEF5AF3CFE9FFF4CFEAFFA7
:10104000EECFE6FFEFCFE6FF4EDDF56E0C0EE15E74
:10105000F550F3CF2BF0F4CF2CF0D9502C0FE96ED4
:10106000DACFEAFF2B50EE262C50ED22CFD1FD0E29
:10107000DBCFE9FFFE0EDBCFEAFFEF5078083EE161
:10108000610EE66EE66A2A0EDBCFE6FF2B0EDBCFA3
:10109000E6FF280EDBCFE6FF290EDBCFE6FF000ED2
:1010A000E66EE66A100EE66EE66AD950FB0FE96E50
:1010B000FF0EDA20EA6EEECFF3FFEDCFF4FF020E63
:1010C000EE5E000EEF5AF3CFE9FFF4CFEAFFEECF6A
:1010D000E6FFEFCFE6FF07DDF56E0C0EE15EF550A3
:1010E000F3CF2BF0F4CF2CF0D9502C0FE96EDACFE0
:1010F000EAFF2B50EE262C50ED2288D1FD0EDBCFDF
:10110000E9FFFE0EDBCFEAFFEF5058083EE1410E4B
:10111000E66EE66A2A0EDBCFE6FF2B0EDBCFE6FF9C
:10112000280EDBCFE6FF290EDBCFE6FF000EE66ED2
:10113000E66A100EE66EE66AD950FB0FE96EFF0E06
:10114000DA20EA6EEECFF3FFEDCFF4FF020EEE5E93
:10115000000EEF5AF3CFE9FFF4CFEAFFEECFE6FF40
:10116000EFCFE6FFC0DCF56E0C0EE15EF550F3CF7D
:101170002BF0F4CF2CF0D9502C0FE96EDACFEAFF28
:101180002B50EE262C50ED2241D1FD0EDBCFE9FF96
:10119000FE0EDBCFEAFFEF5075083EE1610EE66E12
:1011A000E66A2A0EDBCFE6FF2B0EDBCFE6FF280E2A
:1011B000DBCFE6FF290EDBCFE6FF000EE66EE66A28
:1011C0000A0EE66EE66AD950FB0FE96EFF0EDA20D2
:1011D000EA6EEECFF3FFEDCFF4FF020EEE5E000EEF
:1011E000EF5AF3CFE9FFF4CFEAFFEECFE6FFEFCF00
:1011F000E6FF79DCF56E0C0EE15EF550F3CF2BF0D7
:10120000F4CF2CF0D9502C0FE96EDACFEAFF2B5037
:10121000EE262C50ED22FAD0FD0EDBCFE9FFFE0EBC
:10122000DBCFEAFFEF506C0801E081D0610EE66E83
:10123000E66A2A0EDBCFE6FF2B0EDBCFE6FF280E99
:10124000DBCFE6FF290EDBCFE6FF000EE66EE66A97
:10125000100EE66EE66AD950FB0FE96EFF0EDA203B
:10126000EA6EEECFF3FFEDCFF4FF020EEE5E000E5E
:10127000EF5AF3CFE9FFF4CFEAFFEECFE6FFEFCF6F
:10128000E6FF31DCF56E0C0EE15EF550F3CF2BF08E
:10129000F4CF2CF0D9502C0FE96EDACFEAFF2B50A7
:1012A000EE262C50ED22610EE66EE66A2A0EDBCFAA
:1012B000E6FF2B0EDBCFE6FF280EDBCFE6FF290E85
:1012C000DBCFE6FF000EE66EE66A100EE66EE66A1B
:1012D000D950FB0FE96EFF0EDA20EA6EEECFF3FF76
:1012E000EDCFF4FF020EEE5E000EEF5AF3CFE9FFF2
:1012F000F4CFEAFFEECFE6FFEFCFE6FF73EC05F0A9
:10130000F56E0C0EE15EF550F3CF2BF0F4CF2CF020
:10131000D9502C0FE96EDACFEAFF2B50EE262C5075
:10132000ED22FD0EDB2AFE0E01E3DB2A6FD0FD0E5F
:10133000DBCFE9FFFE0EDBCFEAFFEF5062083CE1B6
:10134000610EE66EE66A020EE66EE66A280EDBCFF6
:10135000E6FF290EDBCFE6FF000EE66EE66A020E20
:10136000E66EE66AD950FB0FE96EFF0EDA20EA6EF0
:10137000EECFF3FFEDCFF4FF020EEE5E000EEF5A5C
:10138000F3CFE9FFF4CFEAFFEECFE6FFEFCFE6FFC2
:1013900073EC05F0F56E0C0EE15EF550F3CF2BF01B
:1013A000F4CF2CF0D9502C0FE96EDACFEAFF2B5096
:1013B000EE262C50ED222AD029D0FD0EDBCFE9FFFE
:1013C000FE0EDBCFEAFFEF500A0808E1FD0EDBCF8F
:1013D000E9FFFE0EDBCFEAFF0D0EEF6EFD0EDBCF59
:1013E000E9FFFE0EDBCFEAFFEFCF2BF02C6A2BBE1E
:1013F0002C682BC0E6FF2CC0E6FF6AEC04F0E55237
:10140000E5522C0EDB2A2D0E01E3DB2AFD0EDB2A32
:10141000FE0E01E3DB2ADED42C0EDBCF2BF02D0EEB
:10142000DBCF2CF02BC0F3FF2CC0F4FF00D0D9CFC2
:10143000E1FFE552E7CFD9FF1200D9CFE6FFE1CFB8
:10144000D9FF020EE126D950FD0F2B6EFF0EDA20D8
:101450002C6E2BC0DEFF2CC0DDFFFD0EDBCF2BF092
:10146000FE0EDBCF2CF02D6A2BC0E6FF2CC0E6FF72
:101470002DC0E6FF000EE66E070EE66E3DEC14F0A2
:10148000F56E050EE15EF550D9CFE9FFDACFEAFF40
:10149000020EEE5E000EEF5ADECFE6FFDDCFE6FF76
:1014A000000EE66E070EE66E8BDCE552E552E55265
:1014B000E55200D0D9CFE1FFE552E7CFD9FF1200C6
:1014C000D9CFE6FFE1CFD9FF610EE66EE66A020EE4
:1014D000E66EE66A040EE66EE66A010EE66EE66AFF
:1014E0000A0EE66EE66AFD0EDBCFE6FFFE0EDBCFF0
:1014F000E6FF73EC05F0F56E0C0EE15EF550D95089
:10150000FB0FE96EFF0EDA20EA6EEE50ED1007E0F9
:101510000D0EE66EE66A6AEC04F0E552E552E5521D
:10152000E7CFD9FF1200D9CFE6FFE1CFD9FF610E97
:10153000E66EE66A020EE66EE66A030EE66EE66A9E
:10154000010EE66EE66A0A0EE66EE66AFE0EDBCF76
:10155000E6FFE66A73EC05F0F56E0C0EE15EF55001
:10156000D950FC0FE96EFF0EDA20EA6EEE50ED1056
:1015700007E00D0EE66EE66A6AEC04F0E552E5520D
:10158000E552E7CFD9FF1200D9CFE6FFE1CFD9FF6F
:10159000610EE66EE66A020EE66EE66A100EE66E12
:1015A000E66A000EE66EE66A020EE66EE66AFD0E7A
:1015B000DBCFE6FFFE0EDBCFE6FF73EC05F0F56E4A
:1015C0000C0EE15EF550D950FB0FE96EFF0EDA20EC
:1015D000EA6EEE50ED1007E00D0EE66EE66A6AEC7C
:1015E00004F0E552E552E552E7CFD9FF1200D9CF1A
:1015F000E6FFE1CFD9FF610EE66EE66A020EE66E07
:10160000E66A080EE66EE66A000EE66EE66A020E0E
:10161000E66EE66AFE0EDBCFE6FFE66A73EC05F0E7
:10162000F56E0C0EE15EF550D950FC0FE96EFF0E21
:10163000DA20EA6EEE50ED1007E00D0EE66EE66A77
:101640006AEC04F0E552E552E552E7CFD9FF12000B
:10165000D9CFE6FFE1CFD9FF610EE66EE66A000E54
:10166000E66EE66A020EE66EE66A000EE66EE66A70
:10167000100EE66EE66AFD0EDBCFE6FFFE0EDBCF58
:10168000E6FF73EC05F0F56E0C0EE15EF550D950F7
:10169000FB0FE96EFF0EDA20EA6EEE50ED1007E068
:1016A0000D0EE66EE66A6AEC04F0E552E552E5528C
:1016B000E7CFD9FF1200D9CFE6FFE1CFD9FF610E06
:1016C000E66EE66A020EE66EE66AE66EE66A000E10
:1016D000E66EE66A100EE66EE66AFE0EDBCFE6FF09
:1016E000E66A73EC05F0F56E0C0EE15EF550D9502C
:1016F000FC0FE96EFF0EDA20EA6EEE50ED1007E007
:101700000D0EE66EE66A6AEC04F0E552E552E5522B
:10171000E7CFD9FF1200D9CFE6FFE1CFD9FFFD0E09
:10172000DBCF2BF0FE0EDBCF2CF02D6A2BC0E6FFBB
:101730002CC0E6FF2DC0E6FF000EE66E070EE66E3B
:101740003DEC14F0F56E050EE15EF5500701AF6B50
:10175000B06B000EE66E070EE66E56EC14F0E55226
:10176000E552F3CF2BF0F4CF2CF007012B50AF5DF7
:101770002C50B05918E2000EAF25E96E070EB021CB
:10178000EA6EEFCF2BF02C6A2BBE2C682BC0E6FF45
:101790002CC0E6FF6AEC04F0E552E5520701AF2BDE
:1017A000000EB023D6D7010EE66EE66AFB0EDBCF45
:1017B000E6FFFC0EDBCFE6FF4BDFE552E552E552DC
:1017C000E552E552E7CFD9FF1200D9CFE6FFE1CFCE
:1017D000D9FFFD0EDBCF2BF0FE0EDBCF2CF02D6AF8
:1017E0002BC0E6FF2CC0E6FF2DC0E6FF000EE66E24
:1017F000070EE66E3DEC14F0F56E050EE15EF55059
:101800000701AF6BB06B000EE66E070EE66E56EC8E
:1018100014F0E552E552F3CF2BF0F4CF2CF0070192
:101820002B50AF5D2C50B05918E2000EAF25E96E79
:10183000070EB021EA6EEFCF2BF02C6A2BBE2C687E
:101840002BC0E6FF2CC0E6FF6AEC04F0E552E5523F
:101850000701AF2B000EB023D6D7010EE66EE66A65
:10186000FB0EDBCFE6FFFC0EDBCFE6FF8DDEE552A5
:10187000E552E552E552E552E7CFD9FF1200D9CF44
:10188000E6FFE1CFD9FFFD0EDBCF2BF0FE0EDBCF65
:101890002CF02D6A2BC0E6FF2CC0E6FF2DC0E6FF22
:1018A000000EE66E070EE66E3DEC14F0F56E050ECA
:1018B000E15EF5500701AF6BB06B000EE66E070EF0
:1018C000E66E56EC14F0E552E552F3CF2BF0F4CF70
:1018D0002CF007012B50AF5D2C50B05918E2000ED0
:1018E000AF25E96E070EB021EA6EEFCF2BF02C6A20
:1018F0002BBE2C682BC0E6FF2CC0E6FF6AEC04F080
:10190000E552E5520701AF2B000EB023D6D7E552C2
:06191000E7CFD9FF120031
:0A191600DACFE4FFE2CFDAFFE9CFF9
:10192000E4FFEACFE4FFE652F2A202D098D802D058
:101930009EB6C4D8E552E5CFEAFFE5CFE9FFE5CF93
:10194000DAFF1100E66A010EE66E050EE66EB9ECEE
:1019500013F0E552E552E5521200070EB46E000E88
:10196000886E876E866E856E846E836E826E816EE3
:10197000806E916E906E8F6E8E6E8D6E8C6E8B6E95
:101980008A6E896E92689368BF0E946E956A700E27
:10199000966E9F0E976EE40E986E0F0E996E9A6873
:1019A000C16E070EC06EF19EB0989C8EA26A9F6AAF
:1019B000A06A9D6AA36AA56AC5DF9F86D08E9E969F
:1019C0009D869382F06AF288F09EF098F192F09AE8
:1019D000F16AF28CF28E1200D9CFE6FFE1CFD9FF87
:1019E000E652BBDF07019897989907015C0EBC6F20
:1019F000070EBD6FDF6A100EDF5C0AE2DF50EA6A95
:101A0000BC25E96EBD51EA227F0EEF6EDF2AF3D7C7
:101A10000701756B010E766FC90E776F0701988508
:101A200007017A6B7B6B0701586B5A6B5B6B010E7E
:101A3000D56E800ED76EF90ED66ED59E580EE66E18
:101A4000070EE66EABD8E552E552E552E552E7CF18
:101A5000D9FF120082828088949292981200F292AA
:101A60000701200EB86F9F86070198A906D00701CD
:101A7000E00EB56F000EB66F05D00701C00EB56F52
:101A8000000EB66F070198A1987998A706D00701B4
:101A9000800EB36F000EB46F05D00701A00EB36FB8
:101AA000000EB46FC9CFB9F7B3C7E9FFB4C7EAFFF7
:101AB000B32B000EB423EF50C96E12009E96C9CF0F
:101AC000B9F70701B851000824E2B5C7E9FFB6C766
:101AD000EAFFB52B000EB623B9C7EFFFB3C7E9FF86
:101AE000B4C7EAFFB32BB423EFCFB9F7B9C7C9FF27
:101AF000B807B8510DE1070198810701020E766F12
:101B000007019893800ED76EF90ED66EF294D58E9B
:101B100001D0C96A1200D9CFE6FFE1CFD9FF070192
:101B200098A138D098A906D00701C00EB16F000E59
:101B3000B26F05D00701E00EB16F000EB26FFD0E5F
:101B4000DBCFBAF7FE0EDBCFBBF7B76B200EB75D6E
:101B500014E2B751EA6AB125E96EB251EA22EF50B8
:101B6000E66EBAC7E9FFBBC7EAFFBA2B000EBB237C
:101B7000E552E750EF6EB72BE9D79D960701989194
:101B80009D860F0E0001165D05E06EC7E6FF8DEC29
:101B900012F0E552E552E7CFD9FF1200D9CFE6FFA8
:101BA000E1CFD9FF070198B338D0020E0701765D67
:101BB00001E17ED8070198A706D00701A00EB16FFA
:101BC000000EB26F05D00701800EB16F000EB26F2C
:101BD000FD0EDBCFBCF7FE0EDBCFBDF7B76B200EE3
:101BE000B75D14E2BCC7E9FFBDC7EAFFBC2B000E1E
:101BF000BD23EF50E66EB751EA6AB125E96EB251E6
:101C0000EA22E552E750EF6EB72BE9D79D96070120
:101C1000987798839D860701752BE552E7CFD9FF0A
:101C200012009D96070198919D861200D9CFE6FF7C
:101C3000E1CFD9FF0001166BD950FD0FE96EFF0E01
:101C4000DA20EA6E010EEE1801E1ED5002E1168194
:101C500001D0BA6AD950FB0FE96EFF0EDA20EA6EA6
:101C6000010EEE1801E1ED5002E1168301D0B76AD2
:101C7000D950F90FE96EFF0EDA20EA6E010EEE1868
:101C800001E1ED5002E1168501D0736AD950F70FDA
:101C9000E96EFF0EDA20EA6E010EEE1801E1ED505A
:101CA00002E1168701D0706AE552E7CFD9FF120032
:101CB0000701746B6F6BC6AE04D0C69E010E6F6FCA
:101CC0000ED0F150800B06E0F250080B03E0020E3C
:101CD0006F6F05D0F0A603D0909E030E6F6F250E98
:101CE000C614250805E0010E746FC6CF6FF768D0E3
:101CF000C55005E0020E746FC5CF6FF761D0D0BE3E
:101D000005D0030E746FD0CF6FF75AD09DB605D0B3
:101D1000040E746F9DCF6FF753D09C5005E0050EF5
:101D2000746F9CCF6FF74CD0080E9F5C05E0060ED9
:101D3000746F9FCF6FF744D0A25005E0070E746F09
:101D4000A2CF6FF73DD0A55005E0080E746FA5CF68
:101D50006FF736D0500EF214500805E0090E746F7C
:101D6000F2CF6FF72DD0470EF11405E00A0E746F15
:101D7000F1CF6FF725D0C00EF01405E00B0E746F95
:101D8000F0CF6FF71DD092A805D00C0E746F92CFD4
:101D90006FF716D093B005D00D0E746F93CF6FF719
:101DA0000FD03E0E94141C0805E00E0E746F94CFF5
:101DB0006FF706D097BE04D00F0E746F97CF6FF7F2
:021DC00012000F
:0E1DC200D9CFE6FFE1CFD9FFFE0EDB5011E1D5
:101DD000FC0EDBCFE9FFFD0EDBCFEAFFEF507F0803
:101DE00008E2FC0EDBCFE9FFFD0EDBCFEAFF7F0E42
:101DF000EF6EE552E7CFD9FF1200D9CFE6FFE1CF72
:101E0000D9FFFE0EDB5013E1FC0EDBCFE9FFFD0E28
:101E1000DBCFEAFFEFCF2BF07F0E2B5C08E2FC0E4E
:101E2000DBCFE9FFFD0EDBCFEAFF7F0EEF6EE55261
:101E3000E7CFD9FF1200D9CFE6FFE1CFD9FFFD0EE2
:101E4000DBCF2BF0FE0EDBCF2CF02C50070AE8AED8
:101E500002D0D89004D0D00E2B5C070E2C5806E28E
:101E60000701D00ECC6F070ECD6F1ED0FD0EDBCF5D
:101E70002BF0FE0EDBCF2CF02C50080AE8AE02D07F
:101E80002C3405D0CE0ED8802B54080E2C5406E2EC
:101E90000701CE0ECC6F080ECD6F06D0FD0EDBCF46
:101EA000CCF7FE0EDBCFCDF7CCC72BF0CDC72CF097
:101EB000D00E2B5E070E2C5A2B5000D0E552E7CFE8
:101EC000D9FF1200D9CFE6FFE1CFD9FF07016E6934
:101ED000D950FD0FE96EFF0EDA20EA6EEE50ED10DC
:101EE00001E16E91D950FB0FE96EFF0EDA20EA6E28
:101EF000EE50ED1001E16E93D950F90FE96EFF0E2F
:101F0000DA20EA6EEE50ED1001E16E95D950F70F30
:101F1000E96EFF0EDA20EA6EEE50ED1001E16E97E9
:101F2000D950F50FE96EFF0EDA20EA6EEE50ED1093
:101F300001E16E99D950F30FE96EFF0EDA20EA6ED7
:101F4000EE50ED1001E16E9BD950F10FE96EFF0EDE
:101F5000DA20EA6EEE50ED1001E16E9DD950EF0FE0
:101F6000E96EFF0EDA20EA6EEE50ED1001E16E9F91
:101F7000E552E7CFD9FF1200D9CFE6FFE1CFD9FF75
:101F8000020EE126F30EDE6E280EDD6E9282928046
:101F9000FD0EE66E1AEC12F0E55297889784978052
:101FA000998E998A978C9296929497969792929AF4
:101FB000999C9998979A899689948E968E92899AE7
:101FC000909C90988E9A07017F0E636F63C762F7AB
:101FD00063C761F763C760F763C75FF763C75EF7FF
:101FE00063C75DF763C75CF7010EE66EE66AE66EEF
:101FF000E66AE66EE66AE66EE66AE66EE66AE66E51
:10200000E66AE66EE66AE66EE66A5CDFF56E100E7C
:10201000E15EF550000EE66EE66AE66EE66AE66E92
:10202000E66AE66EE66A16EC0EF0F56E080EE15E04
:10203000F5500CEC12F0580EE66E070EE66ECEEC84
:102040000DF0E552E552DECFE6FFDDCFE6FFEF0E05
:10205000E66E280EE66E1DEC0AF0E552E552E552FA
:10206000E5522AEC0DF0D9CFE1FFE552E7CFD9FFD9
:102070001200780EE66E070EE66E8BEC0DF0E55260
:10208000E5521AD807016351E66EE66A6251E66EC0
:10209000E66ACF0EE66E280EE66E1DEC0AF0F56ECF
:1020A000060EE15EF550580EE66E070EE66ECEECBB
:1020B0000DF0E552E552120007017E512E6AD00F55
:1020C0002D6E070E2E227F5100012D242B6F000E46
:1020D0002E202C6F7F0E2B5E000E2C5A2BC0E6FF9D
:1020E0002CC0E6FFA8DEE552E55207015E6F5C6F8B
:1020F00007017F512E6AD00F2D6E070E2E227E51C2
:102100002F6E306A2F502D5C2B6E30502E582C6E57
:102110007F0E2B26000E2C222BC0E6FF2CC0E6FFE4
:102120008ADEE552E55207015F6F5D6F5C512B6EF1
:102130002C6AFF0ED8802B56000E2C562BC05EF753
:102140002BC05CF782C760F783C761F784C762F76B
:1021500085C763F7600EE66E070EE66E8550010BCD
:10216000E66E2FDEE552E552E552600EE66E070E92
:10217000E66E8550040B01E0010EE66E3EDEE55290
:10218000E552E552610EE66E070EE66E8550100BC5
:1021900001E0010EE66E15DEE552E552E552610EF4
:1021A000E66E070EE66E8550400B01E0010EE66E0E
:1021B00024DEE552E552E5525F0E0701805D03E241
:1021C0008C808C9214D080512B6E2C6A2C50000A7B
:1021D000E8AE02D02C3405D0A00ED8802B54000ECF
:1021E0002C5403E28C908C8202D08C908C925F0EE7
:1021F000815D03E28C848C9614D081512B6E2C6A05
:102200002C50000AE8AE02D02C3405D0A00ED880A5
:102210002B54000E2C5403E28C948C8602D08C94A8
:102220008C968750200B02E08C9801D08C888750C8
:0C223000800B02E08C9A01D08C8A120016
:04223C009EB802D076
:10224000FDD7FCD71200D9CFE6FFE1CFD9FFFE0EB4
:10225000DBCFE6FF77EC12F0E5520D0EAD6EEEDF50
:10226000E552E7CFD9FF1200D9CFE6FFE1CFD9FF82
:102270000701D950FD0F506FFF0EDA20516F010E8C
:10228000EA6A5025E96E5151EA22EF50E66E77EC8A
:1022900012F0E55250C7E9FF51C7EAFFEF50E66E72
:1022A00077EC12F0E5520D0EAD6EC8DFE552E7CFC8
:1022B000D9FF1200D9CFE6FFE1CFD9FFFD0EDBCF6A
:1022C0002BF0FE0EDBCF2CF02D6A2BC0E6FF2CC0CE
:1022D000E6FF2DC0E6FF000EE66E070EE66E3DEC53
:1022E00014F0F56E050EE15EF550000EE66E070E79
:1022F000E66E56EC14F0E552E552F3CF54F7F4CF06
:1023000055F707015551000AE8AE02D0553505D002
:10231000500ED8805455000E555503E2500E546FA0
:10232000556B566B576B57515519E8AE02D0553562
:1023300004D05451565D555157590EE2000E5625A2
:10234000E96E070E5721EA6EEF50AD6E77DF070199
:10235000562B000E5723E7D7E552E7CFD9FF1200DF
:10236000D9CFE6FFE1CFD9FF0701526B1A0E525DBC
:1023700011E2FD0EDBCFE9FFDB2AFE0EDBCFEAFF29
:1023800001E3DB2AEF50E66E77EC12F0E55207012D
:10239000522BECD70D0EAD6E51DFE552E7CFD9FFD2
:1023A00012000701780E506F070E516F0701785128
:1023B0000701C86FC96BCA51C81902E1CB51C919CD
:1023C00018E0070198A502D098950FD0CAC7E6FF7C
:1023D00077EC12F0E552C8C7E6FF77EC12F0E55251
:1023E0000D0EAD6E2BDF07019895C8C7CAF7C9C798
:1023F000CBF70701CA2B000ECB23CB51000AE8AE66
:1024000002D0CB3505D0FF0ED880CA55000ECB5573
:1024100002E2CA6BCB6B1200150EE66E3C0EE66E46
:10242000E6EC13F0E552E552320EE66EEAEC14F0FB
:10243000E5521200D9CFE6FFE1CFD9FFFE0EDBCF88
:1024400053F7E552E7CFD9FF1200D9CFE6FFE1CF2E
:10245000D9FF020EE126FE0EDB507F0BFE0BFD0BBB
:10246000E66E53C7E6FF12EC14F0E552E5520A0E91
:10247000E66E09EC15F0E55217EC15F007EC04F0E8
:10248000000901E0FBD7ABEC14F014EC15F0C450DC
:102490002D6E2DC02EF02D6AC35000012D102B6F14
:1024A0002EC02CF02BC0DEFF2CC0DDFFDECF2BF0CA
:1024B000DDCF2CF02BC0F3FF2CC0F4FF00D0D9CF20
:0A24C000E1FFE552E7CFD9FF12005B
:0624CA00000EE96EEA6E4F
:1024D000040072EC12F0EA2A080EEA5CD8A468EF55
:1024E00012F01200EF6AE93E72EF12F01200FF0ED6
:1024F000E3CF09F009380F0B060FD8B2070F2A0FE8
:10250000AD6E1EEC11F009500F0B060FD8B2070F7D
:102510002A0FAD6E1EEC11F0000CFF0EE3CF15F08C
:1025200015B0968E15A0969E15B2988015A298901B
:1025300015B4988615A4989615B6988815A69898F7
:1025400015B8968015A8969015BA968215AA9692F7
:1025500015BC968415AC969415BE968615AE9696C7
:102560001200F2B4120016500F0AD8B41200FF0E77
:10257000E3CF0AF0FE0EE3CF0BF0FD0EE3CF0CF03D
:10258000FC0EE3CF0DF00A2A16A08D8E0B2A16A2A0
:102590008F800C2A16A48F860D2A16A68F88FB0E14
:1025A000E3CF0EF0FA0EE3CF0FF0F90EE3CF10F009
:1025B000F80EE3CF11F00E2A8D800F2A8D82102A9B
:1025C0008D84112A8D8614EC13F00A2EEAEF12F096
:1025D00016A08D9E0B2EEFEF12F016A28F900C2EF0
:1025E000F4EF12F016A48F9600000D2EFAEF12F001
:1025F00016A68F9800000E2EFFEF12F08D900000AF
:102600000F2E04EF13F08D920000102E09EF13F03F
:102610008D940000112E0EEF13F08D9636EC13F012
:10262000133EE5EF12F01200D70E136E000000000B
:10263000000000002CEC13F0132E16EF13F0D70E51
:10264000136E00000000000000002CEC13F0132EAD
:1026500021EF13F00000120000002FEF13F0000034
:10266000000000000000000000001200030E146EC5
:0A2670000000142E38EF13F01200E2
:06267A001E0EF66E080EB4
:10268000F76E000EF86E07010900F550C36F0900E0
:10269000F550C46F03E1C36701D03DD00900F55088
:1026A000BE6F0900F550BF6F0900F550C06F0900FB
:1026B0000900F550E96E0900F550EA6E09000900BD
:1026C0000900F550C16F0900F550C26F09000900FB
:1026D000F6CFC5F7F7CFC6F7F8CFC7F7BEC7F6FFF7
:1026E000BFC7F7FFC0C7F8FF0701C15302E1C253DC
:1026F00007E00900F550EE6EC107F8E2C207F9D70E
:10270000C5C7F6FFC6C7F7FFC7C7F8FF0701C3076E
:08271000000EC45BBFD71200EC
:082718001EC02AF01DC029F0CB
:102720001D502202F4CF1CF0F3CF1BF01E502302E9
:10273000F4CF1EF0F3CF1DF02202F3501C26F4500C
:102740001D22E86A1E2229502302F3501C26F45051
:102750001D22E86A1E2223AEB2EF13F029501D5E3F
:102760002A501E5A2AAE000C22501D5E23501E5ABB
:02277000000C5B
:0E277200D9CFE6FFE1CFD9FF3F0EC716C66AEA
:10278000FE0EDB50C612FC0EDB50C712FD0EDB50F6
:10279000030A09E0010A04E0020A06E1C78C04D03A
:1027A000C78CC68801D0C688FE0EDB50050A03E040
:1027B000010A04E1928A9486C79E01D09496949A65
:0C27C0009488C68AE552E7CFD9FF1200CA
:0427CC00D9CFE6FF7C
:1027D000E1CFD9FFAC6AAB6AFE0EDBB0AC88DBA2FE
:1027E00002D0AC8CAB8CDBB4AC8EDBA602D0AB8859
:1027F00001D0AB8ADBA802D0AC8401D0AC94DBACB6
:1028000002D09D8A01D09D9ADBAE02D09D8801D076
:102810009D98FD0EDB50AF6EAC8AAB8EE552E7CFD4
:04282000D9FF1200CA
:0C282400D9CFE6FFE1CFD9FFC26AC16A3C
:10283000C06AFD0EDB407F0B3C0BC26EFE0EDB5010
:102840000F0B2B6EFD0EDB38F00B300B2B10C16E17
:10285000FE0EDB380F0B070B2B6EFE0EDB50800BD2
:102860002B10C06EFD0EDBAE03D09E9C9D8CF28CB7
:0A287000C280E552E7CFD9FF120045
:06287A00FB0EE3CFF6FFA8
:10288000FC0EE3CFF7FFFD0EE3CFF8FFFE0EE3CF24
:10289000E9FFFF0EE3CFEAFFE9CFF3FFEACFF4FF52
:1028A0000900F5CFEFFFEE66FBD71200FE0EE3CF77
:1028B000E9FFFF0EE3CFEAFFF36AF46AEE5203E0AA
:0828C000F34AF42AFBD71200D1
:0828C800286E756C6C290050AC
:1028D000574D204F55542037203D2025642C205043
:1028E000574D204F55542038203D2025640A00259F
:1028F000730A0049464920557365722050726F6310
:102900006573736F7220496E697469616C697A6569
:0629100064202E2E2E00B3
:0A291600DACFE4FFE2CFDAFFE65269
:10292000D9CFE6FFE1CFD9FFE652F0A202D0F09274
:1029300009D0F0A402D0F09405D0F2A003D08150C9
:10294000DF6EF290E552E552E7CFD9FFE552E5CFD1
:06295000DAFF1100120085
:0A295600D9CFE6FFE1CFD9FF020E52
:10296000E126C350DF6E010EC4CFDBFFDECF2BF0BC
:10297000DDCF2CF02BC0F3FF2CC0F4FFD9CFE1FF4B
:08298000E552E7CFD9FF120078
:082988001A6A196A100EE76ECD
:10299000D8901D361E3619361A362250195C23502F
:1029A0001A5805E32250195E23501A5A1D2AE72EA1
:0429B000F0D712004A
:0C29B40016EE00F026EE00F0F86A269CFB
:1029C000A68EA69C65EC12F03DEC13F0FAEC14F028
:0429D000F9D7120021
:0C29D400FF0EE350316E480E01D04C0E97
:1029E000E76EE72EFED7E76AE72EFED7312EF7D740
:0429F00000001200D1
:0C29F400ECEC0CF0BCEC0FF0070198912B
:102A0000070198A102D039EC10F0AAEC14F0F8D725
:022A10001200B2
:0E2A1200FF0EE350E84E1200000000D000D08E
:082A200000D0E82EFAD71200E5
:062A2800C2909D9C12000B
:022A2E00C28262
:022A3000120092
:042A320000000000A0
:020000040030CA
:0E000000FFFEFEFCFFFEFBFFFFFFFFFFFFFF0A
:00000001FF
