:020000040000FA
:0608000012EF3BF01200B4
:02080600F26995
:06080800A3EF32F0120024
:02080E00C250D6
:08081000020B01E0010E1200D1
:06081800EFEF39F01200C1
:02081E000300D5
:10082000187700002F0100000400000006080000F7
:100830003301000002000000BE7600000007000047
:040840005A0000005A
:0C08D400D9CFE6FFE1CFD9FF240EE126CA
:1008E000FA0EF36E140EF3CFDBFF150EDB6AFA0E71
:1008F000F36E160EF3CFDBFF170EDB6A2C0EF36ED2
:10090000180EF3CFDBFF010EF36E190EF3CFDBFFF2
:10091000320EF36E1A0EF3CFDBFF1B0EDB6A960E60
:10092000F36E1C0EF3CFDBFF1D0EDB6A4B0EE66E83
:100930006E0EE66E35EC30F0E552E552D20EE66E04
:10094000070EE66EA3EC33F0E552E5529F0EE66E1D
:1009500035EC38F0E552F3CF2BF0F4CF2CF0070153
:100960002C504F19E8AE02D04F3504D04E512B5CBD
:100970004F512C5805E21E0EDB6A1F0EDB6A07D0B2
:10098000010EF36E1E0EF3CFDBFF1F0EDB6AA70E08
:10099000E66E35EC38F0E552F3CF2BF0F4CF2CF0C7
:1009A00007012C504D19E8AE02D04D3504D04C5102
:1009B0002B5C4D512C5805E2200EDB6A210EDB6AC0
:1009C00007D0010EF36E200EF3CFDBFF210EDB6AA2
:1009D000AF0EE66E35EC38F0E552F3CF2BF0F4CFE6
:1009E0002CF007012C504B19E8AE02D04B3504D047
:1009F0004A512B5C4B512C5805E2220EDB6A230E28
:100A0000DB6A07D0010EF36E220EF3CFDBFF230E5D
:100A1000DB6A220EDBCFE6FF230EDBCFE6FF200EE4
:100A2000DBCFE6FF210EDBCFE6FF1E0EDBCFE6FFBE
:100A30001F0EDBCFE6FF5FEC29F0F56E060EE15EE0
:100A4000F550F3CFDEFFF4CFDDFF1DEC24F0080EF0
:100A5000F3CFDBFF090EF4CFDBFFD9CFE9FFDACF0D
:100A6000EAFF070EEE1801E1ED5009E1070E2B6ECB
:100A70002C6A2BC0F3FF2CC0F4FFCFEF10F0D9CFBE
:100A8000E9FFDACFEAFF060EEE1801E1ED5001E0D2
:100A9000ADD1350EE66E6E0EE66E35EC30F0E552F9
:100AA000E552020EDB6A030EDB6A020EDBCF2BF08F
:100AB000030EDBCF2CF0160EDBCF2DF0170EDBCFA5
:100AC0002EF02C502E18E8AE02D02E3404D02D502B
:100AD0002B5C2E502C5817E2000EE66EE66AFF0ED5
:100AE000E66EE66AAFEC24F0E552E552E552E552D7
:100AF0000A0EE66E22EC3BF0E552020EDB2A030EF4
:100B000001E3DB2AD2D7220EE66E6E0EE66E35ECDE
:100B100030F0E552E552020EDB6A030EDB6A020E8C
:100B2000DBCF2BF0030EDBCF2CF0180EDBCF2DF03C
:100B3000190EDBCF2EF02C502E18E8AE02D02E343A
:100B400004D02D502B5C2E502C5819E226C7E6FFFE
:100B500027C7E6FF24C7E6FF25C7E6FFAFEC24F072
:100B6000E552E552E552E5520A0EE66E22EC3BF004
:100B7000E552020EDB2A030E01E3DB2AD0D71DEC7F
:100B800024F0080EF3CFDBFF090EF4CFDBFF080ED5
:100B9000DBCFE6FF090EDBCFE6FF140EE66E6E0E2E
:100BA000E66E35EC30F0E552E552E552E552080EBE
:100BB000DBCF2BF0090EDBCF2CF0070104512B18F3
:100BC00002E105512C180CE0080EDBCF2DF0090EC8
:100BD000DBCF2EF006512D1802E107512E1838E117
:100BE000000EE66E6E0EE66E35EC30F0E552E55224
:100BF000010EE66EE66A050EE66EE66A8DEC1AF008
:100C0000E552E552E552E552F3CF2BF0F4CF2CF04C
:100C10002B502C101CE1010EE66EE66A050EE66E06
:100C2000E66ACAEC24F0E552E552E552E552F3CF0C
:100C30002BF0F4CF2CF02B502C1009E1080E2B6E6A
:100C40002C6A2BC0F3FF2CC0F4FFCFEF10F08FD035
:100C5000080EDBCF2BF0090EDBCF2CF000512B1848
:100C600002E101512C180CE0080EDBCF2DF0090E2B
:100C7000DBCF2EF002512D1802E103512E1809E1AD
:100C8000EC0EE66E6D0EE66E35EC30F0E552E55298
:100C90006ED0080EDBCF2BF0090EDBCF2CF00C5101
:100CA0002B1802E10D512C180CE0080EDBCF2DF0B3
:100CB000090EDBCF2EF00E512D1802E10F512E1828
:100CC00036E1D80EE66E6D0EE66E35EC30F0E5528C
:100CD000E552010EE66EE66AE66EE66A8DEC1AF003
:100CE000E552E552E552E552F3CF2BF0F4CF2CF06C
:100CF0002B502C101BE1010EE66EE66AE66EE66AEA
:100D0000CAEC24F0E552E552E552E552F3CF2BF060
:100D1000F4CF2CF02B502C1009E1080E2B6E2C6A0E
:100D20002BC0F3FF2CC0F4FFCFEF10F020D0080E43
:100D3000DBCF2BF0090EDBCF2CF008512B1802E192
:100D400009512C180CE0080EDBCF2DF0090EDBCF7B
:100D50002EF00A512D1802E10B512E1808E1C40E95
:100D6000E66E6D0EE66E35EC30F0E552E552020EA1
:100D7000DB6A030EDB6A020EDBCF2BF0030EDBCF48
:100D80002CF01A0EDBCF2DF01B0EDBCF2EF02C50EB
:100D90002E18E8AE02D02E3404D02D502B5C2E50ED
:100DA0002C5819E21EC7E6FF1FC7E6FF1CC7E6FF67
:100DB0001DC7E6FFAFEC24F0E552E552E552E552DF
:100DC0000A0EE66E22EC3BF0E552020EDB2A030E21
:100DD00001E3DB2AD0D7060E2B6E2C6A2BC0F3FF63
:100DE0002CC0F4FFCFEF10F0CFEF10F0D9CFE9FF18
:100DF000DACFEAFF050EEE1801E1ED5001E00BD26B
:100E0000B00EE66E6D0EE66E35EC30F0E552E55252
:100E1000020EDB6A030EDB6A020EDBCF2BF0030E41
:100E2000DBCF2CF0140EDBCF2DF0150EDBCF2EF028
:100E30002C502E18E8AE02D02E3404D02D502B5C4E
:100E40002E502C5817E2FF0EE66EE66A000EE66E94
:100E5000E66AAFEC24F0E552E552E552E5520A0E9F
:100E6000E66E22EC3BF0E552020EDB2A030E01E3B4
:100E7000DB2AD2D79C0EE66E6D0EE66E35EC30F0B6
:100E8000E552E552020EDB6A030EDB6A020EDBCF8F
:100E90002BF0030EDBCF2CF0180EDBCF2DF0190E4C
:100EA000DBCF2EF02C502E18E8AE02D02E3404D01A
:100EB0002D502B5C2E502C5819E226C7E6FF27C771
:100EC000E6FF24C7E6FF25C7E6FFAFEC24F0E552B6
:100ED000E552E552E5520A0EE66E22EC3BF0E55291
:100EE000020EDB2A030E01E3DB2AD0D71DEC24F02F
:100EF000080EF3CFDBFF090EF4CFDBFF080EDBCFCC
:100F0000E6FF090EDBCFE6FF140EE66E6E0EE66E10
:100F100035EC30F0E552E552E552E552080EDBCFF4
:100F20002BF0090EDBCF2CF007010A512B1802E140
:100F30000B512C180CE0080EDBCF2DF0090EDBCF87
:100F40002EF00C512D1802E10D512E1838E1890EAA
:100F5000E66E6D0EE66E35EC30F0E552E552000EB1
:100F6000E66EE66A040EE66EE66A8DEC1AF0E5526D
:100F7000E552E552E552F3CF2BF0F4CF2CF02B5095
:100F80002C101CE1000EE66EE66A040EE66EE66AC0
:100F9000CAEC24F0E552E552E552E552F3CF2BF0CE
:100FA000F4CF2CF02B502C1009E1080E2B6E2C6A7C
:100FB0002BC0F3FF2CC0F4FFCFEF10F0EDD0080EE4
:100FC000DBCF2BF0090EDBCF2CF006512B1802E102
:100FD00007512C180CE0080EDBCF2DF0090EDBCFEB
:100FE0002EF008512D1802E109512E1838E1760E25
:100FF000E66E6D0EE66E35EC30F0E552E552000E11
:10100000E66EE66A020EE66EE66A8DEC1AF0E552CE
:10101000E552E552E552F3CF2BF0F4CF2CF02B50F4
:101020002C101CE1000EE66EE66A020EE66EE66A21
:10103000CAEC24F0E552E552E552E552F3CF2BF02D
:10104000F4CF2CF02B502C1009E1080E2B6E2C6ADB
:101050002BC0F3FF2CC0F4FFCFEF10F09DD0080E93
:10106000DBCF2BF0090EDBCF2CF002512B1802E165
:1010700003512C180CE0080EDBCF2DF0090EDBCF4E
:101080002EF004512D1802E105512E1836E1630EA1
:10109000E66E6D0EE66E35EC30F0E552E552000E70
:1010A000E66EE66AE66EE66A8DEC1AF0E552E55207
:1010B000E552E552F3CF2BF0F4CF2CF02B502C104F
:1010C0001BE1000EE66EE66AE66EE66ACAEC24F004
:1010D000E552E552E552E552F3CF2BF0F4CF2CF078
:1010E0002B502C1009E1080E2B6E2C6A2BC0F3FF3D
:1010F0002CC0F4FFCFEF10F04FD0080EDBCF2BF059
:10110000090EDBCF2CF00E512B1802E10F512C18D9
:101110000CE0080EDBCF2DF0090EDBCF2EF00051D6
:101120002D1802E101512E1837E1500EE66E6D0EBA
:10113000E66E35EC30F0E552E552000EE66EE66AFA
:10114000060EE66EE66A8DEC1AF0E552E552E552BF
:10115000E552F3CF2BF0F4CF2CF02B502C101CE1E8
:10116000000EE66EE66A060EE66EE66ACAEC24F04B
:10117000E552E552E552E552F3CF2BF0F4CF2CF0D7
:101180002B502C1009E1080E2B6E2C6A2BC0F3FF9C
:101190002CC0F4FFCFEF10F0020EDB6A030EDB6A07
:1011A000020EDBCF2BF0030EDBCF2CF01A0EDBCFC1
:1011B0002DF01B0EDBCF2EF02C502E18E8AE02D0F7
:1011C0002E3404D02D502B5C2E502C5819E21EC703
:1011D000E6FF1FC7E6FF1CC7E6FF1DC7E6FFAFEC33
:1011E00024F0E552E552E552E5520A0EE66E22EC95
:1011F0003BF0E552020EDB2A030E01E3DB2AD0D7D7
:10120000050E2B6E2C6A2BC0F3FF2CC0F4FFCFEF22
:1012100010F0CFEF10F0D9CFE9FFDACFEAFF040EDC
:10122000EE1801E1ED5001E0A9D1350EE66E6D0E2C
:10123000E66E35EC30F0E552E5521A0EE66E6D0EB4
:10124000E66E35EC30F0E552E552020EDB6A030E35
:10125000DB6A020EDBCF2BF0030EDBCF2CF0180E77
:10126000DBCF2DF0190EDBCF2EF02C502E18E8AE70
:1012700002D02E3404D02D502B5C2E502C5819E265
:1012800026C7E6FF27C7E6FF24C7E6FF25C7E6FF18
:10129000AFEC24F0E552E552E552E5520A0EE66E57
:1012A00022EC3BF0E552020EDB2A030E01E3DB2ABF
:1012B000D0D71DEC24F0080EF3CFDBFF090EF4CFDE
:1012C000DBFF080EDBCFE6FF090EDBCFE6FF140ED7
:1012D000E66E6E0EE66E35EC30F0E552E552E55204
:1012E000E552080EDBCF2BF0090EDBCF2CF0070107
:1012F0000A512B1802E10B512C1838E1890EE66EC9
:101300006D0EE66E35EC30F0E552E552000EE66EFD
:10131000E66A040EE66EE66A8DEC1AF0E552E552D6
:10132000E552E552F3CF2BF0F4CF2CF02B502C10DC
:101330001CE1000EE66EE66A040EE66EE66ACAEC92
:1013400024F0E552E552E552E552F3CF2BF0F4CF0D
:101350002CF02B502C1009E1080E2B6E2C6A2BC0A0
:10136000F3FF2CC0F4FFCFEF10F0C9D0080EDBCF95
:101370002BF0090EDBCF2CF006512B1802E10751A0
:101380002C1838E1760EE66E6D0EE66E35EC30F018
:10139000E552E552000EE66EE66A020EE66EE66A79
:1013A0008DEC1AF0E552E552E552E552F3CF2BF001
:1013B000F4CF2CF02B502C101CE1000EE66EE66AE8
:1013C000020EE66EE66ACAEC24F0E552E552E552FA
:1013D000E552F3CF2BF0F4CF2CF02B502C1009E179
:1013E000080E2B6E2C6A2BC0F3FF2CC0F4FFCFEF3E
:1013F00010F085D0080EDBCF2BF0090EDBCF2CF0E0
:1014000002512B1802E103512C1836E1630EE66EEF
:101410006D0EE66E35EC30F0E552E552000EE66EEC
:10142000E66AE66EE66A8DEC1AF0E552E552E552A0
:10143000E552F3CF2BF0F4CF2CF02B502C101BE106
:10144000000EE66EE66AE66EE66ACAEC24F0E55245
:10145000E552E552E552F3CF2BF0F4CF2CF02B50B0
:101460002C1009E1080E2B6E2C6A2BC0F3FF2CC048
:10147000F4FFCFEF10F043D0080EDBCF2BF0090EB6
:10148000DBCF2CF00E512B1802E10F512C1837E155
:10149000500EE66E6D0EE66E35EC30F0E552E5521C
:1014A000000EE66EE66A060EE66EE66A8DEC1AF04F
:1014B000E552E552E552E552F3CF2BF0F4CF2CF094
:1014C0002B502C101CE1000EE66EE66A060EE66E4E
:1014D000E66ACAEC24F0E552E552E552E552F3CF54
:1014E0002BF0F4CF2CF02B502C1009E1080E2B6EB2
:1014F0002C6A2BC0F3FF2CC0F4FFCFEF10F0020ECC
:10150000DB6A030EDB6A020EDBCF2BF0030EDBCFB0
:101510002CF01A0EDBCF2DF01B0EDBCF2EF02C5053
:101520002E18E8AE02D02E3404D02D502B5C2E5055
:101530002C5819E21EC7E6FF1FC7E6FF1CC7E6FFCF
:101540001DC7E6FFAFEC24F0E552E552E552E55247
:101550000A0EE66E22EC3BF0E552020EDB2A030E89
:1015600001E3DB2AD0D7040E2B6E2C6A2BC0F3FFCD
:101570002CC0F4FFCFEF10F0CFEF10F0D9CFE9FF80
:10158000DACFEAFF030EEE1801E1ED5001E00BD2D5
:10159000080EE66E6D0EE66E35EC30F0E552E55263
:1015A000020EDB6A030EDB6A020EDBCF2BF0030EAA
:1015B000DBCF2CF0140EDBCF2DF0150EDBCF2EF091
:1015C0002C502E18E8AE02D02E3404D02D502B5CB7
:1015D0002E502C5817E2FF0EE66EE66A000EE66EFD
:1015E000E66AAFEC24F0E552E552E552E5520A0E08
:1015F000E66E22EC3BF0E552020EDB2A030E01E31D
:10160000DB2AD2D7F60EE66E6C0EE66E35EC30F0C5
:10161000E552E552020EDB6A030EDB6A020EDBCFF7
:101620002BF0030EDBCF2CF0180EDBCF2DF0190EB4
:10163000DBCF2EF02C502E18E8AE02D02E3404D082
:101640002D502B5C2E502C5819E226C7E6FF27C7D9
:10165000E6FF24C7E6FF25C7E6FFAFEC24F0E5521E
:10166000E552E552E5520A0EE66E22EC3BF0E552F9
:10167000020EDB2A030E01E3DB2AD0D71DEC24F097
:10168000080EF3CFDBFF090EF4CFDBFF080EDBCF34
:10169000E6FF090EDBCFE6FF140EE66E6E0EE66E79
:1016A00035EC30F0E552E552E552E552080EDBCF5D
:1016B0002BF0090EDBCF2CF0070100512B1802E1B3
:1016C00001512C180CE0080EDBCF2DF0090EDBCFFA
:1016D0002EF00E512D1802E10F512E1836E1000E9A
:1016E000E66E6E0EE66E35EC30F0E552E552010E18
:1016F000E66EE66AE66EE66A8DEC1AF0E552E552B1
:10170000E552E552F3CF2BF0F4CF2CF02B502C10F8
:101710001BE1010EE66EE66AE66EE66ACAEC24F0AC
:10172000E552E552E552E552F3CF2BF0F4CF2CF021
:101730002B502C1009E1080E2B6E2C6A2BC0F3FFE6
:101740002CC0F4FFCFEF10F0EFD0080EDBCF2BF062
:10175000090EDBCF2CF00A512B1802E10B512C188B
:101760000CE0080EDBCF2DF0090EDBCF2EF00C5174
:101770002D1802E10D512E1838E1EC0EE66E6D0EBB
:10178000E66E35EC30F0E552E552010EE66EE66AA3
:10179000070EE66EE66A8DEC1AF0E552E552E55268
:1017A000E552F3CF2BF0F4CF2CF02B502C101CE192
:1017B000010EE66EE66A070EE66EE66ACAEC24F0F3
:1017C000E552E552E552E552F3CF2BF0F4CF2CF081
:1017D0002B502C1009E1080E2B6E2C6A2BC0F3FF46
:1017E0002CC0F4FFCFEF10F09FD0080EDBCF2BF012
:1017F000090EDBCF2CF006512B1802E107512C18F3
:101800000CE0080EDBCF2DF0090EDBCF2EF00851D7
:101810002D1802E109512E1838E1D80EE66E6D0E32
:10182000E66E35EC30F0E552E552010EE66EE66A02
:10183000050EE66EE66A8DEC1AF0E552E552E552C9
:10184000E552F3CF2BF0F4CF2CF02B502C101CE1F1
:10185000010EE66EE66A050EE66EE66ACAEC24F054
:10186000E552E552E552E552F3CF2BF0F4CF2CF0E0
:101870002B502C1009E1080E2B6E2C6A2BC0F3FFA5
:101880002CC0F4FFCFEF10F04FD0080EDBCF2BF0C1
:10189000090EDBCF2CF002512B1802E103512C185A
:1018A0000CE0080EDBCF2DF0090EDBCF2EF004513B
:1018B0002D1802E105512E1837E1C40EE66E6D0EAB
:1018C000E66E35EC30F0E552E552010EE66EE66A62
:1018D000030EE66EE66A8DEC1AF0E552E552E5522B
:1018E000E552F3CF2BF0F4CF2CF02B502C101CE151
:1018F000010EE66EE66A030EE66EE66ACAEC24F0B6
:10190000E552E552E552E552F3CF2BF0F4CF2CF03F
:101910002B502C1009E1080E2B6E2C6A2BC0F3FF04
:101920002CC0F4FFCFEF10F0020EDB6A030EDB6A6F
:10193000020EDBCF2BF0030EDBCF2CF01A0EDBCF29
:101940002DF01B0EDBCF2EF02C502E18E8AE02D05F
:101950002E3404D02D502B5C2E502C5819E21EC76B
:10196000E6FF1FC7E6FF1CC7E6FF1DC7E6FFAFEC9B
:1019700024F0E552E552E552E5520A0EE66E22ECFD
:101980003BF0E552020EDB2A030E01E3DB2AD0D73F
:10199000030E2B6E2C6A2BC0F3FF2CC0F4FFCFEF8D
:1019A00010F0CFEF10F0D9CFE9FFDACFEAFF020E47
:1019B000EE1801E1ED5001E0A3D1DB0EE66E6C0EF6
:1019C000E66E35EC30F0E552E552C10EE66E6C0E77
:1019D000E66E35EC30F0E552E552020EDB6A030E9E
:1019E000DB6A020EDBCF2BF0030EDBCF2CF0180EE0
:1019F000DBCF2DF0190EDBCF2EF02C502E18E8AED9
:101A000002D02E3404D02D502B5C2E502C5819E2CD
:101A100026C7E6FF27C7E6FF24C7E6FF25C7E6FF80
:101A2000AFEC24F0E552E552E552E5520A0EE66EBF
:101A300022EC3BF0E552020EDB2A030E01E3DB2A27
:101A4000D0D71DEC24F0080EF3CFDBFF090EF4CF46
:101A5000DBFF080EDBCFE6FF090EDBCFE6FF140E3F
:101A6000E66E6E0EE66E35EC30F0E552E552E5526C
:101A7000E552080EDBCF2BF0090EDBCF2CF007016F
:101A800004512B1802E105512C1837E1000EE66EC7
:101A90006E0EE66E35EC30F0E552E552010EE66E64
:101AA000E66A030EE66EE66A8DEC1AF0E552E55240
:101AB000E552E552F3CF2BF0F4CF2CF02B502C1045
:101AC0001BE1010EE66EE66A030EE66EE66ACAECFC
:101AD00024F0E552E552E552E552F3CF2BF0F4CF76
:101AE0002CF02B502C1008E1080E2B6E2C6A2BC00A
:101AF000F3FF2CC0F4FF53D3C6D0080EDBCF2BF07E
:101B0000090EDBCF2CF000512B1802E101512C18EB
:101B100035E1EC0EE66E6D0EE66E35EC30F0E5521A
:101B2000E552010EE66EE66AE66EE66A8DEC1AF0A4
:101B3000E552E552E552E552F3CF2BF0F4CF2CF00D
:101B40002B502C101AE1010EE66EE66AE66EE66A8C
:101B5000CAEC24F0E552E552E552E552F3CF2BF002
:101B6000F4CF2CF02B502C1008E1080E2B6E2C6AB1
:101B70002BC0F3FF2CC0F4FF12D385D0080EDBCFAF
:101B80002BF0090EDBCF2CF00C512B1802E10D517C
:101B90002C1837E1D80EE66E6D0EE66E35EC30F09F
:101BA000E552E552010EE66EE66A070EE66EE66A5B
:101BB0008DEC1AF0E552E552E552E552F3CF2BF0E9
:101BC000F4CF2CF02B502C101BE1010EE66EE66AD0
:101BD000070EE66EE66ACAEC24F0E552E552E552DD
:101BE000E552F3CF2BF0F4CF2CF02B502C1008E162
:101BF000080E2B6E2C6A2BC0F3FF2CC0F4FFCFD243
:101C000042D0080EDBCF2BF0090EDBCF2CF00851B1
:101C10002B1802E109512C1836E1C40EE66E6D0E48
:101C2000E66E35EC30F0E552E552010EE66EE66AFE
:101C3000050EE66EE66A8DEC1AF0E552E552E552C5
:101C4000E552F3CF2BF0F4CF2CF02B502C101BE1EE
:101C5000010EE66EE66A050EE66EE66ACAEC24F050
:101C6000E552E552E552E552F3CF2BF0F4CF2CF0DC
:101C70002B502C1008E1080E2B6E2C6A2BC0F3FFA2
:101C80002CC0F4FF8CD2020EDB6A030EDB6A020E5C
:101C9000DBCF2BF0030EDBCF2CF01A0EDBCF2DF0B9
:101CA0001B0EDBCF2EF02C502E18E8AE02D02E34B7
:101CB00004D02D502B5C2E502C5819E21EC7E6FF85
:101CC0001FC7E6FF1CC7E6FF1DC7E6FFAFEC24F009
:101CD000E552E552E552E5520A0EE66E22EC3BF083
:101CE000E552020EDB2A030E01E3DB2AD0D7020EF7
:101CF0002B6E2C6A2BC0F3FF2CC0F4FF50D24FD2B6
:101D0000D9CFE9FFDACFEAFF010EEE1801E1ED507D
:101D100001E005D2AE0EE66E6C0EE66E35EC30F0EC
:101D2000E552E552020EDB6A030EDB6A020EDBCFE0
:101D30002BF0030EDBCF2CF0140EDBCF2DF0150EA5
:101D4000DBCF2EF02C502E18E8AE02D02E3404D06B
:101D50002D502B5C2E502C5817E2FF0EE66EE66AD3
:101D6000000EE66EE66AAFEC24F0E552E552E5526D
:101D7000E5520A0EE66E22EC3BF0E552020EDB2A3B
:101D8000030E01E3DB2AD2D79B0EE66E6C0EE66EE5
:101D900035EC30F0E552E552020EDB6A030EDB6AE9
:101DA000020EDBCF2BF0030EDBCF2CF0180EDBCFB7
:101DB0002DF0190EDBCF2EF02C502E18E8AE02D0ED
:101DC0002E3404D02D502B5C2E502C5819E226C7EF
:101DD000E6FF27C7E6FF24C7E6FF25C7E6FFAFEC0F
:101DE00024F0E552E552E552E5520A0EE66E22EC89
:101DF0003BF0E552020EDB2A030E01E3DB2AD0D7CB
:101E00001DEC24F0080EF3CFDBFF090EF4CFDBFF4F
:101E1000080EDBCFE6FF090EDBCFE6FF140EE66E01
:101E20006E0EE66E35EC30F0E552E552E552E552C5
:101E3000080EDBCF2BF0090EDBCF2CF007010C5185
:101E40002B1802E10D512C180CE0080EDBCF2DF001
:101E5000090EDBCF2EF00E512D1802E10F512E1876
:101E600037E1890EE66E6D0EE66E35EC30F0E55228
:101E7000E552000EE66EE66A040EE66EE66A8DEC4A
:101E80001AF0E552E552E552E552F3CF2BF0F4CFCC
:101E90002CF02B502C101BE1000EE66EE66A040EAF
:101EA000E66EE66ACAEC24F0E552E552E552E552E8
:101EB000F3CF2BF0F4CF2CF02B502C1008E1080EB0
:101EC0002B6E2C6A2BC0F3FF2CC0F4FF68D1EAD034
:101ED000080EDBCF2BF0090EDBCF2CF008512B18AE
:101EE00002E109512C180CE0080EDBCF2DF0090E91
:101EF000DBCF2EF00A512D1802E10B512E1837E1DD
:101F0000760EE66E6D0EE66E35EC30F0E552E5527B
:101F1000000EE66EE66A020EE66EE66A8DEC1AF0D8
:101F2000E552E552E552E552F3CF2BF0F4CF2CF019
:101F30002B502C101BE1000EE66EE66A020EE66ED8
:101F4000E66ACAEC24F0E552E552E552E552F3CFD9
:101F50002BF0F4CF2CF02B502C1008E1080E2B6E38
:101F60002C6A2BC0F3FF2CC0F4FF19D19BD0080EB4
:101F7000DBCF2BF0090EDBCF2CF004512B1802E144
:101F800005512C180CE0080EDBCF2DF0090EDBCF2D
:101F90002EF006512D1802E107512E1835E1630E7F
:101FA000E66E6D0EE66E35EC30F0E552E552000E51
:101FB000E66EE66AE66EE66A8DEC1AF0E552E552E8
:101FC000E552E552F3CF2BF0F4CF2CF02B502C1030
:101FD0001AE1000EE66EE66AE66EE66ACAEC24F0E6
:101FE000E552E552E552E552F3CF2BF0F4CF2CF059
:101FF0002B502C1008E1080E2B6E2C6A2BC0F3FF1F
:102000002CC0F4FFCCD04ED0080EDBCF2BF0090E45
:10201000DBCF2CF000512B1802E101512C180CE001
:10202000080EDBCF2DF0090EDBCF2EF002512D185C
:1020300002E103512E1836E1500EE66E6D0EE66E8B
:1020400035EC30F0E552E552000EE66EE66A060E1B
:10205000E66EE66A8DEC1AF0E552E552E552E5527D
:10206000F3CF2BF0F4CF2CF02B502C101BE1000EF3
:10207000E66EE66A060EE66EE66ACAEC24F0E55203
:10208000E552E552E552F3CF2BF0F4CF2CF02B5074
:102090002C1008E1080E2B6E2C6A2BC0F3FF2CC00D
:1020A000F4FF7DD0020EDB6A030EDB6A020EDBCF8B
:1020B0002BF0030EDBCF2CF01A0EDBCF2DF01B0E16
:1020C000DBCF2EF02C502E18E8AE02D02E3404D0E8
:1020D0002D502B5C2E502C5819E21EC7E6FF1FC74F
:1020E000E6FF1CC7E6FF1DC7E6FFAFEC24F0E55294
:1020F000E552E552E5520A0EE66E22EC3BF0E5525F
:10210000020EDB2A030E01E3DB2AD0D7010E2B6E71
:102110002C6A2BC0F3FF2CC0F4FF41D040D0D9CFA4
:10212000E9FFDACFEAFFEE50ED1039E1020EDB6A8B
:10213000030EDB6A020EDBCF2BF0030EDBCF2CF09D
:102140001C0EDBCF2DF01D0EDBCF2EF02C502E18E9
:10215000E8AE02D02E3404D02D502B5C2E502C58DB
:1021600017E2FF0EE66EE66A000EE66EE66AAFEC78
:1021700024F0E552E552E552E5521E0EE66E22ECE1
:102180003BF0E552020EDB2A030E01E3DB2AD2D735
:102190002B6A2C6A2BC0F3FF2CC0F4FF00D0D9CFE0
:1021A000E1FFE552E7CFD9FF1200D9CFE6FFE1CF3B
:1021B000D9FF140EE126960EF36E0A0EF3CFDBFF65
:1021C0000B0EDB6A2C0EF36E0C0EF3CFDBFF010E51
:1021D000F36E0D0EF3CFDBFFB40EF36E0E0EF3CFE6
:1021E000DBFF0F0EDB6AFA0EF36E100EF3CFDBFF90
:1021F000110EDB6A2C0EF36E120EF3CFDBFF010E15
:10220000F36E130EF3CFDBFF8F0EE66E6C0EE66EF1
:1022100035EC30F0E552E5521DEC24F0060EF3CF1C
:10222000DBFF070EF4CFDBFF060EDBCF2BF0070E34
:10223000DBCF2CF007010E512B1802E10F512C18A7
:1022400024E0060EDBCF2DF0070EDBCF2EF0005181
:102250002D1802E101512E1818E0060EDBCF2FF0E9
:10226000070EDBCF30F002512F1802E10351301876
:102270000CE0060EDBCF31F0070EDBCF32F004515D
:10228000311802E10551321803E1DE6ADD6A03D03C
:10229000040EDE6EDD6AD950FD0FE96EFF0EDA2006
:1022A000EA6E020EEE1801E1ED5001E0C5D0020E1B
:1022B000DB6A030EDB6A6F0EE66E6C0EE66E35ECC3
:1022C00030F0E552E552020EDBCF2BF0030EDBCFF0
:1022D0002CF00A0EDBCF2DF00B0EDBCF2EF0D890BA
:1022E0002D362E362C502E18E8AE02D02E3404D0C7
:1022F0002D502B5C2E502C5819E212C7E6FF13C745
:10230000E6FF10C7E6FF11C7E6FFAFEC24F0E55289
:10231000E552E552E5521E0EE66E22EC3BF0E55228
:10232000020EDB2A030E01E3DB2ACDD7020EDB6AA5
:10233000030EDB6A560EE66E6C0EE66E35EC30F080
:10234000E552E552020EDBCF2BF0030EDBCF2CF073
:102350000C0EDBCF2DF00D0EDBCF2EF02C502E18F7
:10236000E8AE02D02E3404D02D502B5C2E502C58C9
:1023700019E226C7E6FF27C7E6FF24C7E6FF25C701
:10238000E6FFAFEC24F0E552E552E552E5521E0EB1
:10239000E66E22EC3BF0E552020EDB2A030E01E36F
:1023A000DB2AD0D73A0EE66E6C0EE66E35EC30F0D6
:1023B000E552E552020EDB6A030EDB6A020EDBCF4A
:1023C0002BF0030EDBCF2CF00E0EDBCF2DF00F0E1B
:1023D000DBCF2EF0020E226E236A2DC01DF02EC020
:1023E0001EF04DEC39F01DC02DF01EC02EF02C500B
:1023F0002E18E8AE02D02E3404D02D502B5C2E5077
:102400002C5819E216C7E6FF17C7E6FF14C7E6FF08
:1024100015C7E6FFAFEC24F0E552E552E552E55270
:102420001E0EE66E22EC3BF0E552020EDB2A030E96
:1024300001E3DB2AC3D7D6D0D950FD0FE96EFF0EDA
:10244000DA20EA6E010EEE1801E1ED5001E0CAD08B
:10245000020EDB6A030EDB6A6F0EE66E6C0EE66E32
:1024600035EC30F0E552E552020EDBCF2BF0030ED7
:10247000DBCF2CF0020E1D6E1E6A0A0EDBCF22F09F
:102480000B0EDBCF23F073EC39F01BC02DF01CC01A
:102490002EF02C502E18E8AE02D02E3404D02D5041
:1024A0002B5C2E502C5819E212C7E6FF13C7E6FF2B
:1024B00010C7E6FF11C7E6FFAFEC24F0E552E55286
:1024C000E552E5521E0EE66E22EC3BF0E552020E9E
:1024D000DB2A030E01E3DB2AC7D7020EDB6A030EF9
:1024E000DB6A560EE66E6C0EE66E35EC30F0E552A9
:1024F000E552020EDBCF2BF0030EDBCF2CF00C0EDF
:10250000DBCF2DF00D0EDBCF2EF02C502E18E8AEC9
:1025100002D02E3404D02D502B5C2E502C5819E2B2
:1025200026C7E6FF27C7E6FF24C7E6FF25C7E6FF65
:10253000AFEC24F0E552E552E552E5521E0EE66E90
:1025400022EC3BF0E552020EDB2A030E01E3DB2A0C
:10255000D0D73A0EE66E6C0EE66E35EC30F0E552F2
:10256000E552020EDB6A030EDB6A020EDBCF2BF0B4
:10257000030EDBCF2CF0100EDBCF2DF0110EDBCFD6
:102580002EF0020E226E236A2DC01DF02EC01EF00A
:102590004DEC39F01DC02DF01EC02EF02C502E1821
:1025A000E8AE02D02E3404D02D502B5C2E502C5887
:1025B00019E21AC7E6FF1BC7E6FF18C7E6FF19C7EF
:1025C000E6FFAFEC24F0E552E552E552E5521E0E6F
:1025D000E66E22EC3BF0E552020EDB2A030E01E32D
:1025E000DB2AC3D7020EDB6A030EDB6A020EDBCFE7
:1025F0002BF0030EDBCF2CF0120EDBCF2DF0130EE1
:10260000DBCF2EF02C502E18E8AE02D02E3404D0A2
:102610002D502B5C2E502C5801E39BD01EC7E6FF9B
:102620001FC7E6FF1CC7E6FF1DC7E6FFAFEC24F09F
:10263000E552E552E552E5521E0EE66E22EC3BF005
:10264000E5522E0EE66E6C0EE66E35EC30F0E5527D
:10265000E55253EC21F0F3CF2BF0F4CF2CF0010E28
:102660002B1801E12C502DE11EC72BF01FC72CF0B9
:102670001E0E2B5E000E2C5A2BC0E6FF2CC0E6FF70
:102680001E0E07012E6A1C252D6E1D512E222DC0F7
:10269000E6FF2EC0E6FFAFEC24F0E552E552E5522E
:1026A000E5521E0EE66EE5EC3AF0E552B6EC21F08E
:1026B000010E2B6E2C6A2BC0F3FF2CC0F4FF57D0F9
:1026C00042D0D20EE66E070EE66EA3EC33F0E55272
:1026D000E5529F0EE66E35EC38F0E552F3CF2BF065
:1026E000F4CF2CF007014F512C18E8AE02D02C3457
:1026F00004D02B504E5D2C504F5917E2A70EE66EBA
:1027000035EC38F0E552F3CF2DF0F4CF2EF0070181
:102710004D512E18E8AE02D02E3404D02D504C5D11
:102720002E504D5902E20FD00ED0DECFE6FFDDCFA6
:10273000E6FF23D8E552E5522B6A2C6A2BC0F3FF43
:102740002CC0F4FF14D0020EDB2A030E01E3DB2AB7
:102750004DD7DECFE6FFDDCFE6FF0FD8E552E552DD
:102760002B6A2C6A2BC0F3FF2CC0F4FF00D0D9CF0A
:10277000E1FFE552E7CFD9FF1200D9CFE6FFE1CF65
:10278000D9FF040EE126DE6ADD6A960EF36E020EB4
:10279000F3CFDBFF030EDB6A260EE66E6C0EE66EF1
:1027A00035EC30F0E552E552DFCF2BF0DF2A010E99
:1027B000DBCF2CF001E3DB2A020EDBCF2DF0030E82
:1027C000DBCF2EF02C502E18E8AE02D02E3404D0E1
:1027D0002D502B5C2E502C5814E212C7E6FF13C765
:1027E000E6FF10C7E6FF11C7E6FFAFEC24F0E552A5
:1027F000E552E552E5521E0EE66E22EC3BF0E55244
:10280000D3D7000EE66EE66AFD0EDBCFE6FFFE0EC6
:10281000DBCFE6FFCAEC24F0E552E552E552E55283
:10282000D9CFE1FFE552E7CFD9FF1200180EE66ECF
:102830006C0EE66E35EC30F0E552E552D20EE66EE7
:10284000070EE66EA3EC33F0E552E55285BC09D0E5
:10285000010E2B6E2C6A2BC0F3FF2CC0F4FF08D0A6
:1028600007D02B6A2C6A2BC0F3FF2CC0F4FF00D0DA
:102870001200D9CFE6FFE1CFD9FF180EE126DE6ABC
:10288000DD6AE80EF36E020EF3CFDBFF030EF36E8C
:10289000F3CFDBFF040EDB6A050EDB6AB80EF36EC6
:1028A000060EF3CFDBFF0B0EF36E070EF3CFDBFF4D
:1028B000080EDB6A090EDB6AC80EF36E0A0EF3CF50
:1028C000DBFF0B0EDB6AC80EF36E0C0EF3CFDBFFE3
:1028D0000D0EDB6A0E0EDB6A0F0EDB6AB80EF36EAE
:1028E000100EF3CFDBFF0B0EF36E110EF3CFDBFFF9
:1028F000120EDB6A130EDB6A640EF36E140EF3CF56
:10290000DBFF150EDB6A2C0EF36E160EF3CFDBFF2A
:10291000010EF36E170EF3CFDBFF0D0EE66E6C0E9D
:10292000E66E35EC30F0E552E552D5EC19F0F3CF18
:102930002BF0F4CF2CF02B502C1001E0CDD0DE6A20
:10294000DD6ADECF2BF0DDCF2CF02C50000AE8AE94
:1029500002D0D89004D0C80E2B5C000E2C5816E282
:10296000FF0EE66EE66A000EE66EE66AAFEC24F055
:10297000E552E552E552E5521E0EE66E22EC3BF0C2
:10298000E552DF2A010E01E3DB2ADBD7DE6ADD6ACE
:10299000DECF2BF0DDCF2CF02C50000AE8AE02D0B9
:1029A000D89004D0640E2B5C000E2C5818E226C779
:1029B000E6FF27C7E6FF24C7E6FF25C7E6FFAFEC23
:1029C00024F0E552E552E552E5521E0EE66E22EC89
:1029D0003BF0E552DF2A010E01E3DB2AD9D7D20E04
:1029E000E66E070EE66EA3EC33F0E552E552AF0E4D
:1029F000E66E35EC38F0E552F3CF2BF0F4CF2CF047
:102A000007012C504B19E8AE02D04B3504D04A5187
:102A10002B5C4B512C5809E28550040B01E0010E50
:102A20002D6E2E6A2D502E101EE0AF0EE66E35EC88
:102A300038F0E552F3CF2FF0F4CF30F007013050EB
:102A40004B19E8AE02D04B3504D04A512F5C4B51A4
:102A5000305809E38550080B01E0010E316E326AEF
:102A6000315032100AE1010E2B6E2C6A2BC0F3FF9D
:102A70002CC0F4FFCFEF19F02FD0DE6ADD6ADECF75
:102A80002BF0DDCF2CF02C50000AE8AE02D0D8900D
:102A900004D0640E2B5C000E2C5816E2000EE66E7D
:102AA000E66AFF0EE66EE66AAFEC24F0E552E55208
:102AB000E552E5521E0EE66E22EC3BF0E552DF2AAF
:102AC000010E01E3DB2ADBD72B6A2C6A2BC0F3FF54
:102AD0002CC0F4FFCFEF19F0DE6ADD6ADECF2BF0F9
:102AE000DDCF2CF0020EDBCF2DF0030EDBCF2EF06E
:102AF0002C502E18E8AE02D02E3404D02D502B5C72
:102B00002E502C5802E3C8EF19F0DECFE6FFDDCFE0
:102B1000E6FF090EE66E6C0EE66E35EC30F0E5521F
:102B2000E552E552E5521EC7E6FF1FC7E6FF1CC788
:102B3000E6FF1DC7E6FFAFEC24F0E552E552E55293
:102B4000E5521E0EE66E22EC3BF0E552D20EE66E2A
:102B5000070EE66EA3EC33F0E552E5528550100BFC
:102B600001E0010E2B6E2C6A2B502C100AE08550D0
:102B7000200B01E0010E2D6E2E6A2D502E1001E06B
:102B8000B3D1040EDB6A050EDB6A040EDBCF2BF03B
:102B9000050EDBCF2CF0060EDBCF2DF0070EDBCFC2
:102BA0002EF02C502E18E8AE02D02E3404D02D502A
:102BB0002B5C2E502C5801E34DD1D20EE66E070E41
:102BC000E66EA3EC33F0E552E5529F0EE66E35EC6F
:102BD00038F0E552F3CF2BF0F4CF2CF007012C5056
:102BE0004F19E8AE02D04F3504D04E512B5C4F51F7
:102BF0002C5816E3A70EE66E35EC38F0E552F3CF0D
:102C00002DF0F4CF2EF007012E504D19E8AE02D072
:102C10004D3504D04C512D5C4D512E5801E314D14B
:102C2000DD0EE66E6B0EE66E35EC30F0E552E552E9
:102C3000080EDB6A090EDB6A080EDBCF2BF0090EEB
:102C4000DBCF2CF00A0EDBCF2DF00B0EDBCF2EF0FE
:102C50002C502E18E8AE02D02E3404D02D502B5C10
:102C60002E502C5819E222C7E6FF23C7E6FF20C7E3
:102C7000E6FF21C7E6FFAFEC24F0E552E552E5524E
:102C8000E5521E0EE66E22EC3BF0E552080EDB2A02
:102C9000090E01E3DB2AD0D726C7E6FF27C7E6FFE8
:102CA00024C7E6FF25C7E6FFAFEC24F0E552E55266
:102CB000E552E5521E0EE66E22EC3BF0E552AD0EFB
:102CC000E66E6B0EE66E35EC30F0E552E552000E26
:102CD000E66EE66AE66EE66ACAEC24F0E552E55274
:102CE000E552E552F3CF2BF0F4CF2CF02B502C1003
:102CF00019E1010EE66EE66AE66EE66A8DEC1AF000
:102D0000E552E552E552E552F3CF2BF0F4CF2CF02B
:102D10002B502C1007E12B6A2C6A2BC0F3FF2CC020
:102D2000F4FF3DD30E0EDB6A0F0EDB6AAF0EE66ECC
:102D300035EC38F0E552F3CF2BF0F4CF2CF007014F
:102D40004B512C18E8AE02D02C3404D02B504A5DE5
:102D50002C504B5909E38550040B01E0010E2D6EF8
:102D60002E6A2D502E1068E0AF0EE66E35EC38F06E
:102D7000E552F3CF2FF0F4CF30F007014B5130186C
:102D8000E8AE02D0303404D02F504A5D30504B5959
:102D900009E38550080B01E0010E316E326A3150B3
:102DA00032104AE0D20EE66E070EE66EA3EC33F068
:102DB000E552E552A50EE66E6B0EE66E35EC30F090
:102DC000E552E55222C7E6FF23C7E6FF20C7E6FF2C
:102DD00021C7E6FFAFEC24F0E552E552E552E5529B
:102DE0000E0EDB2A0F0E01E3DB2A0E0EDBCF2BF0DB
:102DF0000F0EDBCF2CF0100EDBCF2DF0110EDBCF42
:102E00002EF02E502C18E8AE02D02C3404D02B50CB
:102E10002D5C2C502E580FE29A0EE66E6B0EE66E6D
:102E200035EC30F0E552E5522B6A2C6A2BC0F3FFEB
:102E30002CC0F4FFB4D27AD7010E2B6E2C6A2BC0B3
:102E4000F3FF2CC0F4FFABD2040EDB2A050E01E326
:102E5000DB2A9BD6900EE66E6B0EE66E35EC30F0FC
:102E6000E552E552080EDB6A090EDB6A080EDBCF7D
:102E70002BF0090EDBCF2CF00C0EDBCF2DF00D0E5E
:102E8000DBCF2EF02C502E18E8AE02D02E3404D01A
:102E90002D502B5C2E502C5817E2FF0EE66EE66A82
:102EA000000EE66EE66AAFEC24F0E552E552E5521C
:102EB000E5521E0EE66E22EC3BF0E552080EDB2AD0
:102EC000090E01E3DB2AD2D770DAF3CF2BF0F4CF6F
:102ED0002CF02B502C1007E12B6A2C6A2BC0F3FF2F
:102EE0002CC0F4FF5CD24ED29F0EE66E35EC38F06B
:102EF000E552F3CF2BF0F4CF2CF007012C504F19F3
:102F0000E8AE02D04F3504D04E512B5C4F512C58B7
:102F100001E3B9D0A70EE66E35EC38F0E552F3CFF9
:102F20002DF0F4CF2EF007012E504D19E8AE02D04F
:102F30004D3504D04C512D5C4D512E5801E3A3D09A
:102F4000A70EE66E35EC38F0E552F3CF2BF0F4CF58
:102F50002CF02BC0E6FF2CC0E6FF9F0EE66E35EC92
:102F600038F0E552F3CF2DF0F4CF2EF02DC0E6FF70
:102F70002EC0E6FF5D0EE66E6B0EE66E35EC30F0B1
:102F8000F56E060EE15EF550120EDB6A130EDB6A7B
:102F9000120EDBCF2BF0130EDBCF2CF0020E1D6ECA
:102FA0001E6A140EDBCF22F0150EDBCF23F073EC7C
:102FB00039F01BC02DF01CC02EF02C502E18E8AE9E
:102FC00002D02E3404D02D502B5C2E502C5817E2FA
:102FD000FF0EE66EE66A000EE66EE66AAFEC24F0DF
:102FE000E552E552E552E5521E0EE66E22EC3BF04C
:102FF000E552120EDB2A130E01E3DB2AC9D7120EAB
:10300000DB6A130EDB6A120EDBCF2BF0130EDBCF65
:103010002CF0160EDBCF2DF0170EDBCF2EF02C5040
:103020002E18E8AE02D02E3404D02D502B5C2E503A
:103030002C5819E226C7E6FF27C7E6FF24C7E6FF9C
:1030400025C7E6FFAFEC24F0E552E552E552E55224
:103050000A0EE66E22EC3BF0E552120EDB2A130E4E
:1030600001E3DB2AD0D7A1D9F3CF2BF0F4CF2CF09A
:103070002B502C1007E12B6A2C6A2BC0F3FF2CC0BD
:10308000F4FF8DD17FD19F0EE66E35EC38F0E5521E
:10309000F3CF2BF0F4CF2CF007012C504F19E8AEF2
:1030A00002D04F3504D04E512B5C4F512C5801E3C8
:1030B000AAD09F0EE66E35EC38F0E552F3CF2BF038
:1030C000F4CF2CF02BC0E6FF2CC0E6FF3C0EE66EE2
:1030D0006B0EE66E35EC30F0E552E552E552E55206
:1030E000120EDB6A130EDB6A120EDBCF2BF0130E0F
:1030F000DBCF2CF0140EDBCF2DF0150EDBCF2EF036
:103100002C502E18E8AE02D02E3404D02D502B5C5B
:103110002E502C5817E2FF0EE66EE66A000EE66EA1
:10312000E66AAFEC24F0E552E552E552E5521E0E98
:10313000E66E22EC3BF0E552120EDB2A130E01E3A1
:10314000DB2AD2D7120EDB6A130EDB6A120EDBCF3C
:103150002BF0130EDBCF2CF0160EDBCF2DF0170E5D
:10316000DBCF2EF02C502E18E8AE02D02E3404D037
:103170002D502B5C2E502C5819E226C7E6FF27C78E
:10318000E6FF24C7E6FF25C7E6FFAFEC24F0E552D3
:10319000E552E552E5520A0EE66E22EC3BF0E552AE
:1031A000120EDB2A130E01E3DB2AD0D7010EE66EE6
:1031B000E66A050EE66EE66ACAEC24F0E552E552D0
:1031C000E552E552F3CF2BF0F4CF2CF02B502C101E
:1031D00019E1000EE66EE66A040EE66EE66A9DD917
:1031E000E552E552E552E552F3CF2BF0F4CF2CF047
:1031F0002B502C1007E12B6A2C6A2BC0F3FF2CC03C
:10320000F4FFCDD0BFD0A70EE66E35EC38F0E55216
:10321000F3CF2BF0F4CF2CF007012C504D19E8AE72
:1032200002D04D3504D04C512B5C4D512C5801E34C
:10323000A9D0A70EE66E35EC38F0E552F3CF2BF0AF
:10324000F4CF2CF02BC0E6FF2CC0E6FF1A0EE66E82
:103250006B0EE66E35EC30F0E552E552E552E55284
:10326000120EDB6A130EDB6A120EDBCF2BF0130E8D
:10327000DBCF2CF0140EDBCF2DF0150EDBCF2EF0B4
:103280002C502E18E8AE02D02E3404D02D502B5CDA
:103290002E502C5817E2FF0EE66EE66A000EE66E20
:1032A000E66AAFEC24F0E552E552E552E5521E0E17
:1032B000E66E22EC3BF0E552120EDB2A130E01E320
:1032C000DB2AD2D7120EDB6A130EDB6A120EDBCFBB
:1032D0002BF0130EDBCF2CF0160EDBCF2DF0170EDC
:1032E000DBCF2EF02C502E18E8AE02D02E3404D0B6
:1032F0002D502B5C2E502C5819E226C7E6FF27C70D
:10330000E6FF24C7E6FF25C7E6FFAFEC24F0E55251
:10331000E552E552E5520A0EE66E22EC3BF0E5522C
:10332000120EDB2A130E01E3DB2AD0D7000EE66E65
:10333000E66A040EE66EE66ACAEC24F0E552E5524F
:10334000E552E552F3CF2BF0F4CF2CF02B502C109C
:1033500019E1010EE66EE66A050EE66EE66ADDD854
:10336000E552E552E552E552F3CF2BF0F4CF2CF0C5
:103370002B502C1007E12B6A2C6A2BC0F3FF2CC0BA
:10338000F4FF0DD0DF2A010E01E3DB2A6EEF15F00A
:103390002B6A2C6A2BC0F3FF2CC0F4FF00D0D9CFCE
:1033A000E1FFE552E7CFD9FF1200D9CFE6FFE1CF29
:1033B000D9FF060EE126040EDB6A050EDB6A1DEC62
:1033C00024F0F3CFDEFFF4CFDDFFDECF2BF0DDCF37
:1033D0002CF0070100512B1802E101512C181EE0BE
:1033E000DECF2DF0DDCF2EF00E512D1802E10F5162
:1033F0002E1814E0DECF2FF0DDCF30F00C512F1857
:1034000002E10D5130180AE0DECF31F0DDCF32F0AD
:103410000A51311802E10B51321839E1000EE66E03
:10342000E66A040EE66EE66ACAEC24F0E552E5525E
:10343000E552E552F3CF2BF0F4CF2CF02B502C10AB
:1034400025E1010EE66EE66A050EE66EE66ACAEC56
:1034500024F0E552E552E552E552F3CF2BF0F4CFDC
:103460002CF02B502C1012E1000EE66EE66AE66E90
:10347000E66ACAEC24F0E552E552E552E5522B6AC1
:103480002C6A2BC0F3FF2CC0F4FF41D038D0010EC2
:10349000E66EE66A050EE66EE66ACAEC24F0E552D0
:1034A000E552E552E552F3CF2BF0F4CF2CF02B5040
:1034B0002C1025E1000EE66EE66A040EE66EE66A62
:1034C000CAEC24F0E552E552E552E552F3CF2BF079
:1034D000F4CF2CF02B502C1012E1010EE66EE66AB0
:1034E000E66EE66ACAEC24F0E552E552E552E55292
:1034F0002B6A2C6A2BC0F3FF2CC0F4FF08D0010EFE
:103500002B6E2C6A2BC0F3FF2CC0F4FF00D0D9CF58
:10351000E1FFE552E7CFD9FF1200D9CFE6FFE1CFB7
:10352000D9FF0A0EE126DE6ADD6A900EF36E020E06
:10353000F3CFDBFF010EF36E030EF3CFDBFF040EC0
:10354000DB6A050EDB6AF40EE66E6A0EE66E35EC9B
:1035500030F0E552E5521DEC24F0060EF3CFDBFF10
:10356000070EF4CFDBFFD950FB0FE96EFF0EDA2018
:10357000EA6EEE50ED1001E0FFD0E10EE66E6A0E4D
:10358000E66E35EC30F0E552E552DF2A010E01E33C
:10359000DB2ADECF2BF0DDCF2CF0980E226E3A0E18
:1035A000236E2BC01DF02CC01EF04DEC39F019C05D
:1035B0002BF01AC02CF02B502C1059E11DEC24F0EC
:1035C000080EF3CFDBFF090EF4CFDBFF060EDBCFD7
:1035D0002BF0070EDBCF2CF0080EDB502B1803E18D
:1035E000090EDB502C1834E1040EDB6A050EDB6A91
:1035F000040EDBCF2BF0050EDBCF2CF02C50000A95
:10360000E8AE02D0D89004D0960E2B5C000E2C5859
:1036100017E2FF0EE66EE66A000EE66EE66AAFECB3
:1036200024F0E552E552E552E5521E0EE66E22EC1C
:103630003BF0E552040EDB2A050E01E3DB2AD8D766
:103640002B6A2C6A2BC0F3FF2CC0F4FFA0D10FD043
:10365000010EDE6EDD6A080EDBCF1DF0090EDBCF3A
:103660001EF0060E1DC0DBFF070E1EC0DBFF32C7BB
:10367000E6FF33C7E6FF30C7E6FF31C7E6FFAFEC32
:1036800024F0E552E552E552E5521DEC24F0F3CF6B
:103690002BF0F4CF2CF0FD0EDBCFE9FFFE0EDBCFDD
:1036A000EAFFD890E936EA36000EE926070EEA224C
:1036B000EECF2DF0EFCF2EF02D502B1802E12E5033
:1036C0002C1801E062D7DE6ADD6ADECF2BF0DDCF99
:1036D0002CF02C50010AE8AE02D0D89004D02C0E69
:1036E0002B5C010E2C5810E2FF0EE66EE66AE66EC9
:1036F000E66AAFEC24F0E552E552E552E552DF2AE6
:10370000010E01E3DB2AE1D7DE6ADD6ADECF2BF0B2
:10371000DDCF2CF0020EDBCF2DF0030EDBCF2EF031
:103720002C502E18E8AE02D02E3404D02D502B5C35
:103730002E502C5818E226C7E6FF27C7E6FF24C7FD
:10374000E6FF25C7E6FFAFEC24F0E552E552E5526F
:10375000E5520A0EE66E41EC3BF0E552DF2A010E1F
:1037600001E3DB2AD3D7CA0EE66E6A0EE66E35ECAD
:1037700030F0E552E55203D1B60EE66E6A0EE66E03
:1037800035EC30F0E552E552DF2A010E01E3DB2A89
:10379000DECF2BF0DDCF2CF0100E226E270E236E25
:1037A0002BC01DF02CC01EF04DEC39F019C02BF0D1
:1037B0001AC02CF02B502C1059E11DEC24F0080EEF
:1037C000F3CFDBFF090EF4CFDBFF060EDBCF2BF0D0
:1037D000070EDBCF2CF0080EDB502B1803E1090E8F
:1037E000DB502C1834E1040EDB6A050EDB6A040E94
:1037F000DBCF2BF0050EDBCF2CF02C50000AE8AE0F
:1038000002D0D89004D0960E2B5C000E2C5817E2F4
:10381000FF0EE66EE66A000EE66EE66AAFEC24F096
:10382000E552E552E552E5521E0EE66E22EC3BF003
:10383000E552040EDB2A050E01E3DB2AD8D72B6AFA
:103840002C6A2BC0F3FF2CC0F4FFA1D00FD0010EC7
:10385000DE6EDD6A080EDBCF1DF0090EDBCF1EF039
:10386000060E1DC0DBFF070E1EC0DBFF2AC7E6FFEA
:103870002BC7E6FF28C7E6FF29C7E6FFAFEC24F019
:10388000E552E552E552E5520A0EE66E41EC3BF098
:10389000E5521DEC24F0F3CF2BF0F4CF2CF0FD0E0D
:1038A000DBCFE9FFFE0EDBCFEAFFD890E936EA3640
:1038B000000EE926070EEA22EECF2DF0EFCF2EF014
:1038C0002D502B1802E12E502C1801E05DD7DE6A36
:1038D000DD6ADECF2BF0DDCF2CF02C50000AE8AEF5
:1038E00002D0D89004D0FA0E2B5C000E2C5810E2B7
:1038F000000EE66EE66AE66EE66AAFEC24F0E5528C
:10390000E552E552E552DF2A010E01E3DB2AE1D759
:10391000DE6ADD6ADECF2BF0DDCF2CF0020EDBCFCE
:103920002DF0030EDBCF2EF02C502E18E8AE02D077
:103930002E3404D02D502B5C2E502C5818E226C764
:10394000E6FF27C7E6FF24C7E6FF25C7E6FFAFEC83
:1039500024F0E552E552E552E5520A0EE66E41ECDE
:103960003BF0E552DF2A010E01E3DB2AD3D7CA0E72
:10397000E66E6A0EE66E35EC30F0E552E552010E69
:103980002B6E2C6A2BC0F3FF2CC0F4FF00D0D9CFD4
:10399000E1FFE552E7CFD9FF1200D9CFE6FFE1CF33
:1039A000D9FF0C0EE126DE6ADD6A020EDB6A030E29
:1039B000DB6A140EF36E040EF3CFDBFF050EDB6A39
:1039C000060EDB6A070EDB6A640EF36E080EF3CF99
:1039D000DBFF090EDB6A2C0EF36E0A0EF3CFDBFF62
:1039E000010EF36E0B0EF3CFDBFF020EDB6A030E4C
:1039F000DB6A020EDBCF2BF0030EDBCF2CF0040EC4
:103A0000DBCF2DF0050EDBCF2EF02C502E18E8AEBC
:103A100002D02E3404D02D502B5C2E502C5801E3B4
:103A2000FCD20D0EE66E6C0EE66E35EC30F0E55213
:103A3000E55200DBF3CF2BF0F4CF2CF02B502C1001
:103A400001E1E5D2DE6ADD6ADECF2BF0DDCF2CF0BE
:103A50002C50000AE8AE02D0D89004D0C80E2B5CDF
:103A6000000E2C5816E2FF0EE66EE66A000EE66EB9
:103A7000E66AAFEC24F0E552E552E552E5521E0E3F
:103A8000E66E22EC3BF0E552DF2A010E01E3DB2A71
:103A9000DBD7DE6ADD6ADECF2BF0DDCF2CF02C50D9
:103AA000000AE8AE02D0D89004D0640E2B5C000E61
:103AB0002C5818E226C7E6FF27C7E6FF24C7E6FF13
:103AC00025C7E6FFAFEC24F0E552E552E552E5529A
:103AD0001E0EE66E22EC3BF0E552DF2A010E01E3FA
:103AE000DB2AD9D7D20EE66E070EE66EA3EC33F0D2
:103AF000E552E552AF0EE66E35EC38F0E552F3CF05
:103B00002BF0F4CF2CF007012C504B19E8AE02D06B
:103B10004B3504D04A512B5C4B512C5809E285504F
:103B2000040B01E0010E2D6E2E6A2D502E101EE0AA
:103B3000AF0EE66E35EC38F0E552F3CF2FF0F4CF50
:103B400030F0070130504B19E8AE02D04B3504D0AD
:103B50004A512F5C4B51305812E28550080B01E05E
:103B6000010E316E326A3150321009E1010E2B6EB6
:103B70002C6A2BC0F3FF2CC0F4FF56D247D29F0E05
:103B8000E66E35EC38F0E552F3CF2BF0F4CF2CF0A5
:103B900007014F512C18E8AE02D02C3404D02B5022
:103BA0004E5D2C504F5917E2A70EE66E35EC38F0FB
:103BB000E552F3CF2DF0F4CF2EF007014D512E1822
:103BC000E8AE02D02E3404D02D504C5D2E504D590D
:103BD00002E21DD21BD29F0EE66E35EC38F0E552A4
:103BE000F3CF2BF0F4CF2CF007012C504F19E8AE97
:103BF00002D04F3504D04E512B5C4F512C5801E36D
:103C0000A2D0A70EE66E35EC38F0E552F3CF2DF0DA
:103C1000F4CF2EF007012E504D19E8AE02D04D35ED
:103C200004D04C512D5C4D512E5801E38CD0A70E81
:103C3000E66E35EC38F0E552F3CF2BF0F4CF2CF0F4
:103C40002BC0E6FF2CC0E6FF9F0EE66E35EC38F089
:103C5000E552F3CF2DF0F4CF2EF02DC0E6FF2EC0AD
:103C6000E6FF5D0EE66E6B0EE66E35EC30F0F56E3F
:103C7000060EE15EF550060EDB6A070EDB6A060EE5
:103C8000DBCF2BF0070EDBCF2CF0080EDBCF2DF0B7
:103C9000090EDBCF2EF02C502E18E8AE02D02E34B9
:103CA00004D02D502B5C2E502C5817E2FF0EE66EE0
:103CB000E66A000EE66EE66AAFEC24F0E552E552E5
:103CC000E552E5521E0EE66E22EC3BF0E552060E82
:103CD000DB2A070E01E3DB2AD2D7060EDB6A070ECA
:103CE000DB6A060EDBCF2BF0070EDBCF2CF00A0EC3
:103CF000DBCF2DF00B0EDBCF2EF02C502E18E8AEC4
:103D000002D02E3404D02D502B5C2E502C5819E2AA
:103D100026C7E6FF27C7E6FF24C7E6FF25C7E6FF5D
:103D2000AFEC24F0E552E552E552E5520A0EE66E9C
:103D300022EC3BF0E552060EDB2A070E01E3DB2AFC
:103D4000D0D765D163D19F0EE66E35EC38F0E552E1
:103D5000F3CF2BF0F4CF2CF007012C504F19E8AE25
:103D600002D04F3504D04E512B5C4F512C5801E3FB
:103D70009CD09F0EE66E35EC38F0E552F3CF2BF079
:103D8000F4CF2CF02BC0E6FF2CC0E6FF3C0EE66E15
:103D90006B0EE66E35EC30F0E552E552E552E55239
:103DA000060EDB6A070EDB6A060EDBCF2BF0070E72
:103DB000DBCF2CF0080EDBCF2DF0090EDBCF2EF081
:103DC0002C502E18E8AE02D02E3404D02D502B5C8F
:103DD0002E502C5817E2FF0EE66EE66A000EE66ED5
:103DE000E66AAFEC24F0E552E552E552E5521E0ECC
:103DF000E66E22EC3BF0E552060EDB2A070E01E3ED
:103E0000DB2AD2D7060EDB6A070EDB6A060EDBCF93
:103E10002BF0070EDBCF2CF00A0EDBCF2DF00B0EB4
:103E2000DBCF2EF02C502E18E8AE02D02E3404D06A
:103E30002D502B5C2E502C5819E226C7E6FF27C7C1
:103E4000E6FF24C7E6FF25C7E6FFAFEC24F0E55206
:103E5000E552E552E5520A0EE66E22EC3BF0E552E1
:103E6000060EDB2A070E01E3DB2AD0D7010EE66E31
:103E7000E66AE66EE66ACAEC24F0E552E552E552DF
:103E8000E552F3CF2BF0F4CF2CF02B502C100BE19C
:103E9000000EE66EE66AE66EE66ACAEC24F0E552CB
:103EA000E552E552E552B3D0B1D0A70EE66E35EC3F
:103EB00038F0E552F3CF2BF0F4CF2CF007012C5063
:103EC0004D19E8AE02D04D3504D04C512B5C4D510C
:103ED0002C5801E39BD0A70EE66E35EC38F0E55286
:103EE000F3CF2BF0F4CF2CF02BC0E6FF2CC0E6FF75
:103EF0001A0EE66E6B0EE66E35EC30F0E552E552CA
:103F0000E552E552060EDB6A070EDB6A060EDBCFD2
:103F10002BF0070EDBCF2CF0080EDBCF2DF0090EB7
:103F2000DBCF2EF02C502E18E8AE02D02E3404D069
:103F30002D502B5C2E502C5817E2FF0EE66EE66AD1
:103F4000000EE66EE66AAFEC24F0E552E552E5526B
:103F5000E5521E0EE66E22EC3BF0E552060EDB2A21
:103F6000070E01E3DB2AD2D7060EDB6A070EDB6AF7
:103F7000060EDBCF2BF0070EDBCF2CF00A0EDBCFCB
:103F80002DF00B0EDBCF2EF02C502E18E8AE02D009
:103F90002E3404D02D502B5C2E502C5819E226C7FD
:103FA000E6FF27C7E6FF24C7E6FF25C7E6FFAFEC1D
:103FB00024F0E552E552E552E5520A0EE66E22EC97
:103FC0003BF0E552060EDB2A070E01E3DB2AD0D7D1
:103FD000000EE66EE66AE66EE66ACAEC24F0E5528A
:103FE000E552E552E552F3CF2BF0F4CF2CF02B50F5
:103FF0002C100BE1010EE66EE66AE66EE66ACAEC8C
:1040000024F0E552E552E552E55201D000D0020E0F
:10401000DB2A030E01E3DB2AECD42B6A2C6A2BC0CB
:10402000F3FF2CC0F4FF00D0D9CFE1FFE552E7CF7A
:10403000D9FF1200D9CFE6FFE1CFD9FF060EE12666
:10404000040EDB6A050EDB6A1DEC24F0F3CFDEFF05
:10405000F4CFDDFFDECF2BF0DDCF2CF007010051D8
:104060002B1802E101512C181EE0DECF2DF0DDCF20
:104070002EF00E512D1802E10F512E1814E0DECF54
:104080002FF0DDCF30F00C512F1802E10D51301818
:104090000AE0DECF31F0DDCF32F00A51311802E113
:1040A0000B5132182CE1010EE66EE66AE66EE66A06
:1040B000CAEC24F0E552E552E552E552F3CF2BF07D
:1040C000F4CF2CF02B502C1019E1000EE66EE66AAE
:1040D000E66EE66ACAEC24F0E552E552E552E55296
:1040E000F3CF2BF0F4CF2CF02B502C1007E12B6AE0
:1040F0002C6A2BC0F3FF2CC0F4FF34D02BD0000E61
:10410000E66EE66AE66EE66ACAEC24F0E552E5522F
:10411000E552E552F3CF2BF0F4CF2CF02B502C10BE
:1041200019E1010EE66EE66AE66EE66ACAEC24F074
:10413000E552E552E552E552F3CF2BF0F4CF2CF0E7
:104140002B502C1007E12B6A2C6A2BC0F3FF2CC0DC
:10415000F4FF08D0010E2B6E2C6A2BC0F3FF2CC08D
:10416000F4FF00D0D9CFE1FFE552E7CFD9FF12002D
:10417000D9CFE6FFE1CFD9FF020EE126D20EE66EDF
:10418000070EE66EA3EC33F0E552E55246C7DEFFBC
:1041900047C7DDFFDECF2BF0DDCF2CF00701495103
:1041A0002C18E8AE02D02C3404D02B50485D2C5093
:1041B000495920E2A60EE66E6A0EE66E35EC30F046
:1041C000E552E552DFCFB9F7B20EE66E070EE66EA6
:1041D000E6EC33F0E552E5520A0EE66EE5EC3AF015
:1041E000E552D9CFE9FFDACFEAFF050EEE5E000E09
:1041F000ED5AD0D7DE6ADD6ADECF2BF0DDCF2CF0B2
:104200002C50000AE8AE02D0D89004D0640E2B5C8B
:10421000000E2C5812E2B20EE66E070EE66EE6ECC9
:1042200033F0E552E5520A0EE66EE5EC3AF0E5525F
:10423000DF2A010E01E3DB2ADFD748C7DEFF49C7CB
:10424000DDFFDECF2BF0DDCF2CF0070147512C181E
:10425000E8AE02D02C3404D02B50465D2C50475988
:1042600014E3DFCFB9F7B20EE66E070EE66EE6ECAA
:1042700033F0E552E5520A0EE66EE5EC3AF0E5520F
:10428000050EDE26000EDD22DCD7010E2B6E2C6A19
:104290002BC0F3FF2CC0F4FF00D0D9CFE1FFE552D3
:1042A000E7CFD9FF1200D9CFE6FFE1CFD9FF040E47
:1042B000E126990EE66E6A0EE66E35EC30F0E552B8
:1042C000E552D20EE66E070EE66EA3EC33F0E55231
:1042D000E552970EE66E35EC38F0E552F3CFDEFF8F
:1042E000F4CFDDFFDECF2BF0DDCF2CF007012C501B
:1042F0004119E8AE02D0413504D040512B5C415108
:104300002C581EE3DECF2DF0DDCF2EF03F512E18BE
:10431000E8AE02D02E3404D02D503E5D2E503F59D1
:1043200018E2DECF2FF0DDCF30F03050020AE8AED9
:1043300002D0D89004D0580E2F5C020E305809E2FB
:10434000010E2B6E2C6A2BC0F3FF2CC0F4FF08D09B
:1043500007D02B6A2C6A2BC0F3FF2CC0F4FF00D0CF
:10436000D9CFE1FFE552E7CFD9FF1200D9CFE6FF61
:10437000E1CFD9FF020EE1267E0EE66E6A0EE66EF2
:1043800035EC30F0E552E55242C7DEFF43C7DDFFB2
:10439000DECF2BF0DDCF2CF0070145512C18E8AE15
:1043A00002D02C3404D02B50445D2C50455918E2D7
:1043B000DFCFB8F7B20EE66E070EE66EE6EC33F02E
:1043C000E552E5520A0EE66EE5EC3AF0E552D9CF39
:1043D000E9FFDACFEAFF050EEE5E000EED5AD8D700
:1043E000DE6ADD6ADECF2BF0DDCF2CF02C50000A28
:1043F000E8AE02D0D89004D0C80E2B5C000E2C582A
:104400001FE226C7E6FF27C7E6FF24C7E6FF25C74A
:10441000E6FFA5DAE552E552E552E552B20EE66E48
:10442000070EE66EE6EC33F0E552E5520A0EE66E54
:10443000E5EC3AF0E552DF2A010E01E3DB2AD2D7A0
:1044400044C7DEFF45C7DDFFDECF2BF0DDCF2CF00C
:10445000070143512C18E8AE02D02C3404D02B5065
:10446000425D2C50435914E3DFCFB8F7B20EE66E2D
:10447000070EE66EE6EC33F0E552E5520A0EE66E04
:10448000E5EC3AF0E552050EDE26000EDD22DCD723
:10449000D9CFE1FFE552E7CFD9FF1200D9CFE6FF30
:1044A000E1CFD9FF080EE1266D0EE66E6A0EE66ECC
:1044B00035EC30F0E552E552D20EE66E070EE66EB0
:1044C000A3EC33F0E552E552870EE66E35EC38F09A
:1044D000E552F3CFDEFFF4CFDDFF8F0EE66E35EC55
:1044E00038F0E552020EF3CFDBFF030EF4CFDBFF13
:1044F000DECF2BF0DDCF2CF007013B512C18E8AEBE
:1045000002D02C3404D02B503A5D2C503B591CE285
:10451000DECF2DF0DDCF2EF02E503919E8AE02D0CF
:10452000393504D038512D5C39512E580DE2600ECA
:10453000E66E6A0EE66E35EC30F0E552E5520701A4
:10454000562B000E572332D0DECF2BF0DDCF2CF0D0
:104550003B512C18E8AE02D02C3404D02B503A5DDD
:104560002C503B5923E35651571105E1040EDB6AE9
:10457000050EDB6A1BD051515719E8AE02D05735F2
:1045800004D05651505D575151590AE3566B576B41
:10459000010EF36E040EF3CFDBFF050EDB6A06D0CF
:1045A000566B576B040EDB6A050EDB6A020EDBCF1F
:1045B0002BF0030EDBCF2CF03D512C18E8AE02D0CF
:1045C0002C3404D02B503C5D2C503D591EE2020E81
:1045D000DBCF2DF0030EDBCF2EF02E503919E8AED5
:1045E00002D0393504D038512D5C39512E580DE2A6
:1045F000520EE66E6A0EE66E35EC30F0E552E5528C
:104600000701582B000E592334D0020EDBCF2BF0BC
:10461000030EDBCF2CF03D512C18E8AE02D02C3429
:1046200004D02B503C5D2C503D5923E35851591177
:1046300005E1060EDB6A070EDB6A1BD051515919E2
:10464000E8AE02D0593504D05851505D59515159F6
:104650000AE3586B596B010EF36E060EF3CFDBFFC6
:10466000070EDB6A06D0586B596B060EDB6A070E25
:10467000DB6AD950040FE96EDACFEAFF010EEE18BB
:1046800001E1ED5009E1020E2B6E2C6A2BC0F3FF05
:104690002CC0F4FF1BD01AD0D950060FE96EDACF28
:1046A000EAFF010EEE1801E1ED5009E1010E2B6E5B
:1046B0002C6A2BC0F3FF2CC0F4FF08D007D02B6A64
:1046C0002C6A2BC0F3FF2CC0F4FF00D0D9CFE1FF40
:1046D000E552E7CFD9FF1200440EE66E6A0EE66E91
:1046E00035EC30F0E552E552D20EE66E070EE66E7E
:1046F000A3EC33F0E552E5528550100B03E08550F2
:10470000200B09E1010E2B6E2C6A2BC0F3FF2CC08D
:10471000F4FF08D007D02B6A2C6A2BC0F3FF2CC003
:10472000F4FF00D01200D9CFE6FFE1CFD9FF060E8B
:10473000E126370EE66E6A0EE66E35EC30F0E55295
:10474000E5522C0EDE6E010EDD6EF40EF36E020EDF
:10475000F3CFDBFF010EF36E030EF3CFDBFF040E8E
:10476000DBCF2BF0050EDBCF2CF0DECF2DF0DDCF35
:104770002EF02C502E18E8AE02D02E3404D02D503E
:104780002B5C2E502C581AE222C7E6FF23C7E6FF07
:1047900020C7E6FF21C7E6FFE2D8E552E552E55221
:1047A000E5526AEC04F01E0EE66E22EC3BF0E55298
:1047B000040EDB2A050E01E3DB2AD1D7040EDBCF82
:1047C0002BF0050EDBCF2CF0020EDBCF2DF0030E0D
:1047D000DBCF2EF02C502E18E8AE02D02E3404D0B1
:1047E0002D502B5C2E502C581AE22AC7E6FF2BC7FF
:1047F000E6FF28C7E6FF29C7E6FFB1D8E552E55234
:10480000E552E5526AEC04F01E0EE66E22EC3BF037
:10481000E552040EDB2A050E01E3DB2ACFD7010E99
:104820002B6E2C6A2BC0F3FF2CC0F4FF00D0D9CF25
:10483000E1FFE552E7CFD9FF1200D9CFE6FFE1CF84
:10484000D9FF0A0EE126010EDE6EDD6AF36E020E5E
:10485000F3CFDBFF030EDB6A010EF36E040EF3CF22
:10486000DBFF050EDB6A010EF36E060EF3CFDBFFF6
:10487000070EDB6AD20EE66E070EE66EA3EC33F08F
:10488000E552E55287B802D0DE6ADD6A87BA04D005
:10489000020EDB6A030EDB6A87BC04D0040EDB6AFF
:1048A000050EDB6A87BE04D0060EDB6A070EDB6AE4
:1048B000010EE66E4FEC3BF0E552060EDBCF31F019
:1048C000070EDBCF32F0030ED89031363236E804D3
:1048D000FBE1040EDBCF33F0050EDBCF34F0D890D4
:1048E00033363436D89033363436315033242F6E45
:1048F00032503420306E020EDBCF35F0030EDBCFAA
:1049000036F0D890353636362F5035242D6E30504F
:1049100036202E6EDE502D242B6EDD502E202C6E78
:10492000080E2BC0DBFF090E2CC0DBFFB20EE66EBB
:10493000070EE66EE6EC33F0E552E552080EDBCFEB
:104940002BF0090EDBCF2CF02BC0F3FF2CC0F4FFB3
:1049500000D0D9CFE1FFE552E7CFD9FF1200D9CF80
:10496000E6FFE1CFD9FFFD0EDBCFB6F7FB0EDBCFC5
:10497000B7F7B20EE66E070EE66EE6EC33F0E552E0
:10498000E552010EE66E41EC3BF0E552E552E7CF11
:10499000D9FF1200D9CFE6FFE1CFD9FF100EE126F3
:1049A000020EDB6A030EDB6A040EDB6A050EDB6AAD
:1049B000900EF36E060EF3CFDBFF010EF36E070EC3
:1049C000F3CFDBFF200EF36E080EF3CFDBFF4E0EAE
:1049D000F36E090EF3CFDBFF0A0EDB6A0B0EDB6A08
:1049E000200EE66E6A0EE66E35EC30F0E552E552CA
:1049F00024DF0C0EF3CFDBFF0D0EF4CFDBFFD9501D
:104A0000FB0FE96EFF0EDA20EA6EEE50ED1001E0CA
:104A1000DED0E10EE66E6A0EE66E35EC30F0E55261
:104A2000E552020EDB2A030E01E3DB2A020EDBCF86
:104A30002BF0030EDBCF2CF0980E226E3A0E236E75
:104A40002BC01DF02CC01EF04DEC39F019C02BF01E
:104A50001AC02CF02B502C1030E1EFDE0E0EF3CFED
:104A6000DBFF0F0EF4CFDBFF0C0EDBCF2BF00D0EB8
:104A7000DBCF2CF00E0EDB502B1803E10F0EDB50BA
:104A80002C1808E12B6A2C6A2BC0F3FF2CC0F4FF12
:104A900089D113D0010EF36E020EF3CFDBFF030EAC
:104AA000DB6A0E0EDBCF1DF00F0EDBCF1EF00C0EFF
:104AB0001DC0DBFF0D0E1EC0DBFF32C7E6FF33C794
:104AC000E6FF30C7E6FF31C7E6FF49DFE552E552B2
:104AD000E552E552B2DEF3CF2BF0F4CF2CF0FD0E11
:104AE000DBCFE9FFFE0EDBCFEAFFD890E936EA36EE
:104AF000000EE926070EEA22EECF2DF0EFCF2EF0C2
:104B00002D502B1802E12E502C188BE1020EDB6A7F
:104B1000030EDB6A020EDBCF2BF0030EDBCF2CF093
:104B20002C50010AE8AE02D0D89004D02C0E2B5C99
:104B3000010E2C5810E2FF0EE66EE66AE66EE66A9B
:104B40000EDFE552E552E552E552020EDB2A030E76
:104B500001E3DB2ADFD7020EDB6A030EDB6A020EFB
:104B6000DBCF2BF0030EDBCF2CF0060EDBCF2DF0CE
:104B7000070EDBCF2EF02C502E18E8AE02D02E34CC
:104B800004D02D502B5C2E502C5818E226C7E6FF7F
:104B900027C7E6FF24C7E6FF25C7E6FFE0DEE552AC
:104BA000E552E552E5520A0EE66E41EC3BF0E55265
:104BB000020EDB2A030E01E3DB2AD1D7CA0EE66E12
:104BC0006A0EE66E35EC30F0E552E552E3D0B60EF3
:104BD000E66E6A0EE66E35EC30F0E552E552020EF6
:104BE000DB2A030E01E3DB2A020EDBCF2BF0030EE0
:104BF000DBCF2CF0100E226E270E236E2BC01DF083
:104C00002CC01EF04DEC39F019C02BF01AC02CF05E
:104C10002B502C1030E111DE0E0EF3CFDBFF0F0E08
:104C2000F4CFDBFF0C0EDBCF2BF00D0EDBCF2CF027
:104C30000E0EDB502B1803E10F0EDB502C1808E191
:104C40002B6A2C6A2BC0F3FF2CC0F4FFABD013D01F
:104C5000010EF36E020EF3CFDBFF030EDB6A0E0EC6
:104C6000DBCF1DF00F0EDBCF1EF00C0E1DC0DBFFE7
:104C70000D0E1EC0DBFF2AC7E6FF2BC7E6FF28C7C5
:104C8000E6FF29C7E6FF6BDEE552E552E552E55245
:104C90000A0EE66E41EC3BF0E552CFDDF3CF2BF090
:104CA000F4CF2CF0FD0EDBCFE9FFFE0EDBCFEAFFE9
:104CB000D890E936EA36000EE926070EEA22EECF52
:104CC0002DF0EFCF2EF02D502B1802E12E502C1886
:104CD00001E085D7020EDB6A030EDB6A020EDBCF32
:104CE0002BF0030EDBCF2CF02C50000AE8AE02D0E4
:104CF000D89004D0FA0E2B5C000E2C5810E2000E57
:104D0000E66EE66AE66EE66A2ADEE552E552E552AE
:104D1000E552020EDB2A030E01E3DB2ADFD7020E87
:104D2000DB6A030EDB6A020EDBCF2BF0030EDBCF58
:104D30002CF0060EDBCF2DF0070EDBCF2EF02C5023
:104D40002E18E8AE02D02E3404D02D502B5C2E50FD
:104D50002C5818E226C7E6FF27C7E6FF24C7E6FF60
:104D600025C7E6FFFCDDE552E552E552E5520A0EA5
:104D7000E66E41EC3BF0E552020EDB2A030E01E346
:104D8000DB2AD1D7CA0EE66E6A0EE66E35EC30F03D
:104D9000E552E552010E2B6E2C6A2BC0F3FF2CC09E
:104DA000F4FF00D0D9CFE1FFE552E7CFD9FF1200E1
:104DB000D9CFE6FFE1CFD9FF0701C869D950FD0F70
:104DC000E96EFF0EDA20EA6EEE50ED1001E1C891B7
:104DD000D950FB0FE96EFF0EDA20EA6EEE50ED10AF
:104DE00001E1C893D950F90FE96EFF0EDA20EA6E9F
:104DF000EE50ED1001E1C895D950F70FE96EFF0EA6
:104E0000DA20EA6EEE50ED1001E1C897D950F50FA7
:104E1000E96EFF0EDA20EA6EEE50ED1001E1C8995E
:104E2000D950F30FE96EFF0EDA20EA6EEE50ED1066
:104E300001E1C89BD950F10FE96EFF0EDA20EA6E4E
:104E4000EE50ED1001E1C89DD950EF0FE96EFF0E55
:104E5000DA20EA6EEE50ED1001E1C89FE552E7CF8F
:104E6000D9FF1200D9CFE6FFE1CFD9FF020EE1262C
:104E7000FD0EDE6E690EDD6E9780928A92869284B8
:104E800092829280F90EE66E2AEC38F0E552998E05
:104E9000998C998A9988978C978A9788978697840E
:104EA000978207017F0EBD6FBDC7BCF7BDC7BBF7BB
:104EB000BDC7BAF726C7B7F724C7B6F742C7B8F7D2
:104EC00046C7B9F7010EE66EE66AE66EE66AE66E7A
:104ED000E66AE66EE66AE66EE66AE66EE66AE66E42
:104EE000E66AE66EE66A64DFF56E100EE15EF55086
:104EF000000EE66EE66AE66EE66AE66EE66AE66E64
:104F0000E66A2EEC34F0F56E080EE15EF5501CEC0E
:104F100038F0B20EE66E070EE66EE6EC33F0E552C0
:104F2000E552DECFE6FFDDCFE6FFF90EE66E690E55
:104F3000E66E35EC30F0E552E552E552E55242ECD2
:104F400033F0D9CFE1FFE552E7CFD9FF1200D9CF37
:104F5000E6FFE1CFD9FF200EE126140EDB6A150E25
:104F6000DB6A180EDB6A190EDB6A1A0EDB6A1B0E8F
:104F7000DB6AF40EF36E1C0EF3CFDBFF010EF36E53
:104F80001D0EF3CFDBFF1E0EDB6A1F0EDB6A320E37
:104F9000E66EE5EC3AF0E552B20EE66E070EE66E0E
:104FA000E6EC33F0E552E552D20EE66E070EE66E01
:104FB000A3EC33F0E552E552D9501E0FE96EDACF7B
:104FC000EAFFEE50ED100BE185B408D0010EF36E50
:104FD0001E0EF3CFDBFF1F0EDB6AEED736D1180EA5
:104FE000DBCF2BF0190EDBCF2CF01C0EDBCF2DF01E
:104FF0001D0EDBCF2EF02C502E18E8AE02D02E3432
:1050000004D02D502B5C2E502C580AE2180EDB2AAF
:10501000190E01E3DB2A1A0EDB6A1B0EDB6A19D0BC
:10502000010EE76E1C0EDBCF2BF01D0EDBCF2CF03C
:10503000E7502B26000E2C22180E2BC0DBFF190E7A
:105040002CC0DBFF010EF36E1A0EF3CFDBFF1B0E3D
:10505000DB6A1EC7E6FF1FC7E6FF1CC7E6FF1DC7CA
:10506000E6FF7DDCE552E552E552E5526AEC04F0DC
:10507000F3CFDEFFF4CFDDFFD9CFE9FFDACFEAFFD0
:10508000060EEE1801E1ED5036E0D9CFE9FFDACF98
:10509000EAFF050EEE1801E1ED502DE0D9CFE9FF52
:1050A000DACFEAFF040EEE1801E1ED5024E0D9CF8B
:1050B000E9FFDACFEAFF030EEE1801E1ED501BE045
:1050C000D9CFE9FFDACFEAFF020EEE1801E1ED5089
:1050D00012E0D9CFE9FFDACFEAFF010EEE1801E1C5
:1050E000ED5009E0D9CFE9FFDACFEAFF080EEE185C
:1050F00001E1ED5002E150D701D000D06CEC23F07B
:10510000F3CF2BF0F4CF2CF0010E2B1801E12C5033
:1051100004E193EC23F040D701D000D016EC14F05A
:10512000F3CF2BF0F4CF2CF0010E2B1801E12C5013
:105130001AE139EC14F0F3CF2BF0F4CF2CF0010E80
:105140002B1801E12C500DE17F0EE66EE66AE66E4B
:10515000E66AAFEC24F0E552E552E552E552B8ECD0
:1051600020F0DCD701D000D053EC21F0F3CF2BF0AE
:10517000F4CF2CF0010E2B1801E12C5026E11EC7B4
:105180002BF01FC72CF01E0E2B5E000E2C5A2BC0CE
:10519000E6FF2CC0E6FF1E0E07012E6A1C252D6EB1
:1051A0001D512E222DC0E6FF2EC0E6FFAFEC24F0ED
:1051B000E552E552E552E5521E0EE66EE5EC3AF098
:1051C000E552B6EC21F0AAD701D000D0D9501A0F81
:1051D000E96EDACFEAFFEE50ED1001E1DDD64EECDC
:1051E00022F0020EF3CFDBFF030EF4CFDBFFD9502A
:1051F000020FE96EDACFEAFFEE50ED101DE0020E6D
:10520000DBCFE6FF030EDBCFE6FFD5EC10F0E55277
:10521000E552040EF3CFDBFF050EF4CFDBFFD950D0
:10522000040FE96EDACFEAFF010EEE1801E1ED504E
:1052300002E174D702D0B0D6AFD6B20EE66E070E3A
:10524000E66EE6EC33F0E552E552D9CFE1FFE552E8
:10525000E7CFD9FF1200D9CFE6FFE1CFD9FF020E89
:10526000E126DE6ADD6ADECF2BF0DDCF2CF0FD0E0D
:10527000DBCF2DF0FE0EDBCF2EF02C502E18E8AE3B
:1052800002D02E3404D02D502B5C2E502C5811E21D
:10529000E66AE5EC3AF0E552B20EE66E070EE66E0F
:1052A000E6EC33F0E552E552DF2A010E01E3DB2A9A
:1052B000DAD7D9CFE1FFE552E7CFD9FF1200D9CF36
:1052C000E6FFE1CFD9FFD950FD0FE96EFF0EDA20DE
:1052D000EA6E010EEE1801E1ED501FE1D950FB0F0F
:1052E000E96EFF0EDA20EA6E010EEE1801E1ED50D4
:1052F00014E1D950F90FE96EFF0EDA20EA6E010EC3
:10530000EE1801E1ED5009E1070E2B6E2C6A2BC05F
:10531000F3FF2CC0F4FFF2D0F1D0D950FD0FE96EAD
:10532000FF0EDA20EA6E010EEE1801E1ED501DE1EC
:10533000D950FB0FE96EFF0EDA20EA6E010EEE186F
:1053400001E1ED5012E1D950F90FE96EFF0EDA20BC
:10535000EA6EEE50ED1009E1060E2B6E2C6A2BC0A2
:10536000F3FF2CC0F4FFCAD0C9D0D950FD0FE96EAD
:10537000FF0EDA20EA6E010EEE1801E1ED501DE19C
:10538000D950FB0FE96EFF0EDA20EA6EEE50ED10F9
:1053900014E1D950F90FE96EFF0EDA20EA6E010E22
:1053A000EE1801E1ED5009E1050E2B6E2C6A2BC0C1
:1053B000F3FF2CC0F4FFA2D0A1D0D950FD0FE96EAD
:1053C000FF0EDA20EA6E010EEE1801E1ED501BE14E
:1053D000D950FB0FE96EFF0EDA20EA6EEE50ED10A9
:1053E00012E1D950F90FE96EFF0EDA20EA6EEE50A5
:1053F000ED1009E1040E2B6E2C6A2BC0F3FF2CC0BC
:10540000F4FF7CD07BD0D950FD0FE96EFF0EDA207F
:10541000EA6EEE50ED101FE1D950FB0FE96EFF0E62
:10542000DA20EA6E010EEE1801E1ED5014E1D950D8
:10543000F90FE96EFF0EDA20EA6E010EEE1801E1B7
:10544000ED5009E1030E2B6E2C6A2BC0F3FF2CC02C
:10545000F4FF54D053D0D950FD0FE96EFF0EDA207F
:10546000EA6EEE50ED101DE1D950FB0FE96EFF0E14
:10547000DA20EA6E010EEE1801E1ED5012E1D9508A
:10548000F90FE96EFF0EDA20EA6EEE50ED1009E139
:10549000020E2B6E2C6A2BC0F3FF2CC0F4FF2ED013
:1054A0002DD0D950FD0FE96EFF0EDA20EA6EEE50D6
:1054B000ED101DE1D950FB0FE96EFF0EDA20EA6E08
:1054C000EE50ED1014E1D950F90FE96EFF0EDA201D
:1054D000EA6E010EEE1801E1ED5009E1010E2B6EAE
:1054E0002C6A2BC0F3FF2CC0F4FF08D007D02B6A26
:1054F0002C6A2BC0F3FF2CC0F4FF00D0E552E7CF9D
:04550000D9FF1200BD
:0C550400D9CFE6FFE1CFD9FFFD0EDB5050
:10551000AD6E2EEC37F0E552E7CFD9FF1200D9CFB0
:10552000E6FFE1CFD9FF080EE126DE6ADD6A200E34
:10553000F36E020EF3CFDBFF030EDB6AFB0EDBCF55
:105540002BF0FC0EDBCF2CF02C50000AE8AE02D082
:105550002C3405D0000ED8802B54000E2C545AE267
:10556000040EDB6A050EDB6AFD0EDBCF1DF0FE0EBE
:10557000DBCF1EF0060E1DC0DBFF070E1EC0DBFFDB
:10558000060EDBCFE9FF070EDBCFEAFFEF500BE0A3
:10559000040EDB2A050E01E3DB2A060EDB2A070ECA
:1055A00001E3DB2AEDD7040EDBCF2BF0050EDBCFBA
:1055B0002CF0FB0EDBCF2DF0FC0EDBCF2EF02C50B1
:1055C0002E18E8AE02D02E3404D02D502B5C2E5075
:1055D0002C5805E3FB0EDB6AFC0EDB6A10D0040ED0
:1055E000DBCF2BF0050EDBCF2CF0D950FB0FE96E93
:1055F000FF0EDA20EA6E2B50EE5E2C50ED5AF90EBB
:10560000DB50020B07E0300EF36E020EF3CFDBFF30
:10561000030EDB6AF90EDB50010B25E1FB0EDBCF3D
:105620002BF0FC0EDBCF2CF02C50000AE8AE02D0A1
:105630002C3405D0000ED8802B54000E2C5413E2CD
:10564000020EDBCFE6FF030EDBCFE6FF5BDFE552AA
:10565000E552DF2A010E01E3DB2AFB0EDB06FC0E1E
:1056600001E2DB06DBD7FD0EDBCFE9FFFE0EDBCF71
:10567000EAFFEF501CE0FD0EDBCFE9FFFE0EDBCFB3
:10568000EAFFEFCF2BF02C6A2BBE2C682BC0E6FF75
:105690002CC0E6FF37DFE552E552DF2A010E01E3B9
:1056A000DB2AFD0EDB2AFE0E01E3DB2ADCD7FB0E34
:1056B000DBCF2BF0FC0EDBCF2CF02C50000AE8AE39
:1056C00002D02C3405D0000ED8802B54000E2C5460
:1056D00013E2020EDBCFE6FF030EDBCFE6FF12DFA5
:1056E000E552E552DF2A010E01E3DB2AFB0EDB0661
:1056F000FC0E01E2DB06DBD7DECF2BF0DDCF2CF09A
:105700002BC0F3FF2CC0F4FF00D0D9CFE1FFE5524E
:10571000E7CFD9FF1200D9CFE6FFE1CFD9FF0A0EBC
:10572000E126040EDB6A050EDB6A060EDB6A070E55
:10573000DB6AFD0EDBCF1DF0FE0EDBCF1EF0080E88
:105740001DC0DBFF090E1EC0DBFF0101BE0E006F96
:10575000EF0E146FD950FD0FE96EFF0EDA20EA6EDE
:10576000EE50ED1019E1300E006F016BF50EDBCF3E
:10577000E6FFF60EDBCFE6FFF70EDBCFE6FFF80E17
:10578000DBCFE6FF000EE66E010EE66EC8DEF56EBC
:10579000060EE15EF55026D1D950F90FE96EFF0EE5
:1057A000DA20EA6EEE50ED102CE0D950FB0FE96ED6
:1057B000FF0EDA20EA6E0A0EEE1801E1ED5021E14B
:1057C000FD0EDBCF2BF0FE0EDBCF2CF00001800EA8
:1057D0002C1517E0010EF36E040EF3CFDBFF050E60
:1057E000DB6A1D681E68FD0EDBCF22F0FE0EDBCFEC
:1057F00023F073EC39F0080E1BC0DBFF090E1CC050
:10580000DBFF140E2B6E010E2C6E2B06000E2C5A95
:105810002BC0DEFF2CC0DDFFDECFE9FFDDCFEAFFCE
:10582000EF6AD950080FE96EDACFEAFFEE50ED10BB
:1058300072E0080EDBCF1DF0090EDBCF1EF0FB0E71
:10584000DBCF22F0FC0EDBCF23F0FCEC3AF0020EB3
:1058500019C0DBFF030E1AC0DBFF020EDBCF2BF0FB
:10586000030EDBCF2CF02C50000AE8AE02D0D8900B
:1058700004D00A0E2B5C000E2C5817E3F30EDBCF7E
:105880002BF0F40EDBCF2CF0300E2B5E000E2C5ADA
:105890000A0E2B5E000E2C5AD950020FE96EDACF99
:1058A000EAFF2B50EE262C50ED22300EE76E020E52
:1058B000DBCF2BF0030EDBCF2CF0E7502B26000EB6
:1058C0002C22D9CFE9FFDACFEAFFEE06ED5AEECF70
:1058D000F3FFEDCFF4FFF3CFE9FFF4CFEAFF2BC0E6
:1058E000EFFFFB0EDBCF2BF0FC0EDBCF2CF0D95003
:1058F000080FE96EDACFEAFF2BC022F02CC023F0AC
:10590000EECF1DF0EDCF1EF0FCEC3AF01DC0EEFF27
:105910001EC0EDFF86D7D950040FE96EDACFEAFF3B
:10592000EE50ED102FE0D950F70FE96EFF0EDA20A0
:10593000EA6EEE50ED1015E0F50EDB50020B11E0B3
:105940002D0EE66EE66ADEDDE552E552060EDB2A36
:10595000070E01E3DB2AF70EDB06F80E01E2DB0699
:1059600011D0D9CFE9FFDACFEAFFEE06000EED5AEB
:10597000EECFF3FFEDCFF4FFF3CFE9FFF4CFEAFF73
:105980002D0EEF6E060EDBCF2DF0070EDBCF2EF0C7
:105990002DC0E6FF2EC0E6FFF50EDBCFE6FFF60ECC
:1059A000DBCFE6FFF70EDBCFE6FFF80EDBCFE6FF3F
:1059B000DECFE6FFDDCFE6FFB2DDF56E060EE15E7F
:1059C000F550E552E7CF2EF0E552E7CF2DF02D5000
:1059D000F3242B6E2E50F4202C6E2BC0F3FF2CC022
:1059E000F4FF00D0D9CFE1FFE552E7CFD9FF120095
:1059F000D9CFE6FFE1CFD9FF2E0EE1262C0EDB6AD0
:105A00002D0EDB6AFD0EDBCFE9FFFE0EDBCFEAFFDA
:105A1000EF5001E119D3FD0EDBCFE9FFFE0EDBCF26
:105A2000EAFFEF50250801E0E0D2FD0EDB2AFE0E72
:105A300001E3DB2A2A0EDB6A2B0EDB6AD950280F22
:105A4000E96EDACFEAFFEE6AED6AFD0EDBCFE9FF21
:105A5000FE0EDBCFEAFFEF5001E1F6D2FD0EDBCF09
:105A6000E9FFFE0EDBCFEAFFEF50250801E1BDD2D2
:105A7000FD0EDBCFE9FFFE0EDBCFEAFFEF502D0876
:105A80000CE1FD0EDB2AFE0E01E3DB2A010EF36EB4
:105A90002A0EF3CFDBFF2B0EDB6AFD0EDBCFE9FF17
:105AA000FE0EDBCFEAFFEF5030080DE1FD0EDB2AE2
:105AB000FE0E01E3DB2AD9502A0FE96EDACFEAFFA6
:105AC000EE82ED52EAD7FD0EDBCFE9FFFE0EDBCF13
:105AD000EAFFEFCF2BF0300E2B5C30E3FD0EDBCF77
:105AE000E9FFFE0EDBCFEAFFEF50390827E3D9507C
:105AF000280FE96EDACFEAFF0A0EEC02F3CFEDFFD2
:105B0000EF02F3CFEEFFF450ED26FD0EDBCFE9FF01
:105B1000FE0EDBCFEAFFEF50D00F2B6E2C6AD95070
:105B2000280FE96EDACFEAFF2B50EE262C50ED223B
:105B3000FD0EDB2AFE0E01E3DB2AC5D7FD0EDBCF0F
:105B4000E9FFFE0EDBCFEAFFEF50730861E1D950A9
:105B5000FB0FE96EFF0EDA20EA6EEECFF3FFEDCF1A
:105B6000F4FF020EEE5E000EEF5AF3CFE9FFF4CF22
:105B7000EAFFEECF2BF0EFCF2CF02D6A2BC0E6FF23
:105B80002CC0E6FF2DC0E6FFD9CFE6FFDACFE6FF57
:105B9000A5EC3AF0F56E050EE15EF550DF5015E12B
:105BA00033C12BF034C12CF02D6A2BC0E6FF2CC082
:105BB000E6FF2DC0E6FFD9CFE6FFDACFE6FFA5EC82
:105BC0003AF0F56E050EE15EF5502A0EDBCFE6FFEA
:105BD0002B0EDBCFE6FF280EDBCFE6FF290EDBCF57
:105BE000E6FFD9CFE6FFDACFE6FF99DCF56E060EC9
:105BF000E15EF550F3CF2BF0F4CF2CF0D9502C0F01
:105C0000E96EDACFEAFF2B50EE262C50ED2216D2A9
:105C1000FD0EDBCFE9FFFE0EDBCFEAFFEF5064089D
:105C20003EE1610EE66EE66A2A0EDBCFE6FF2B0E42
:105C3000DBCFE6FF280EDBCFE6FF290EDBCFE6FF4A
:105C4000010EE66EE66A0A0EE66EE66AD950FB0FB2
:105C5000E96EFF0EDA20EA6EEECFF3FFEDCFF4FF30
:105C6000020EEE5E000EEF5AF3CFE9FFF4CFEAFF2B
:105C7000EECFE6FFEFCFE6FF4EDDF56E0C0EE15EF8
:105C8000F550F3CF2BF0F4CF2CF0D9502C0FE96E58
:105C9000DACFEAFF2B50EE262C50ED22CFD1FD0EAD
:105CA000DBCFE9FFFE0EDBCFEAFFEF5078083EE1E5
:105CB000610EE66EE66A2A0EDBCFE6FF2B0EDBCF27
:105CC000E6FF280EDBCFE6FF290EDBCFE6FF000E56
:105CD000E66EE66A100EE66EE66AD950FB0FE96ED4
:105CE000FF0EDA20EA6EEECFF3FFEDCFF4FF020EE7
:105CF000EE5E000EEF5AF3CFE9FFF4CFEAFFEECFEE
:105D0000E6FFEFCFE6FF07DDF56E0C0EE15EF55026
:105D1000F3CF2BF0F4CF2CF0D9502C0FE96EDACF63
:105D2000EAFF2B50EE262C50ED2288D1FD0EDBCF62
:105D3000E9FFFE0EDBCFEAFFEF5058083EE1410ECF
:105D4000E66EE66A2A0EDBCFE6FF2B0EDBCFE6FF20
:105D5000280EDBCFE6FF290EDBCFE6FF000EE66E56
:105D6000E66A100EE66EE66AD950FB0FE96EFF0E8A
:105D7000DA20EA6EEECFF3FFEDCFF4FF020EEE5E17
:105D8000000EEF5AF3CFE9FFF4CFEAFFEECFE6FFC4
:105D9000EFCFE6FFC0DCF56E0C0EE15EF550F3CF01
:105DA0002BF0F4CF2CF0D9502C0FE96EDACFEAFFAC
:105DB0002B50EE262C50ED2241D1FD0EDBCFE9FF1A
:105DC000FE0EDBCFEAFFEF5075083EE1610EE66E96
:105DD000E66A2A0EDBCFE6FF2B0EDBCFE6FF280EAE
:105DE000DBCFE6FF290EDBCFE6FF000EE66EE66AAC
:105DF0000A0EE66EE66AD950FB0FE96EFF0EDA2056
:105E0000EA6EEECFF3FFEDCFF4FF020EEE5E000E72
:105E1000EF5AF3CFE9FFF4CFEAFFEECFE6FFEFCF83
:105E2000E6FF79DCF56E0C0EE15EF550F3CF2BF05A
:105E3000F4CF2CF0D9502C0FE96EDACFEAFF2B50BB
:105E4000EE262C50ED22FAD0FD0EDBCFE9FFFE0E40
:105E5000DBCFEAFFEF506C0801E081D0610EE66E07
:105E6000E66A2A0EDBCFE6FF2B0EDBCFE6FF280E1D
:105E7000DBCFE6FF290EDBCFE6FF000EE66EE66A1B
:105E8000100EE66EE66AD950FB0FE96EFF0EDA20BF
:105E9000EA6EEECFF3FFEDCFF4FF020EEE5E000EE2
:105EA000EF5AF3CFE9FFF4CFEAFFEECFE6FFEFCFF3
:105EB000E6FF31DCF56E0C0EE15EF550F3CF2BF012
:105EC000F4CF2CF0D9502C0FE96EDACFEAFF2B502B
:105ED000EE262C50ED22610EE66EE66A2A0EDBCF2E
:105EE000E6FF2B0EDBCFE6FF280EDBCFE6FF290E09
:105EF000DBCFE6FF000EE66EE66A100EE66EE66A9F
:105F0000D950FB0FE96EFF0EDA20EA6EEECFF3FFF9
:105F1000EDCFF4FF020EEE5E000EEF5AF3CFE9FF75
:105F2000F4CFEAFFEECFE6FFEFCFE6FF8BEC2BF0EE
:105F3000F56E0C0EE15EF550F3CF2BF0F4CF2CF0A4
:105F4000D9502C0FE96EDACFEAFF2B50EE262C50F9
:105F5000ED22FD0EDB2AFE0E01E3DB2A6FD0FD0EE3
:105F6000DBCFE9FFFE0EDBCFEAFFEF5062083CE13A
:105F7000610EE66EE66A020EE66EE66A280EDBCF7A
:105F8000E6FF290EDBCFE6FF000EE66EE66A020EA4
:105F9000E66EE66AD950FB0FE96EFF0EDA20EA6E74
:105FA000EECFF3FFEDCFF4FF020EEE5E000EEF5AE0
:105FB000F3CFE9FFF4CFEAFFEECFE6FFEFCFE6FF46
:105FC0008BEC2BF0F56E0C0EE15EF550F3CF2BF061
:105FD000F4CF2CF0D9502C0FE96EDACFEAFF2B501A
:105FE000EE262C50ED222AD029D0FD0EDBCFE9FF82
:105FF000FE0EDBCFEAFFEF500A0808E1FD0EDBCF13
:10600000E9FFFE0EDBCFEAFF0D0EEF6EFD0EDBCFDC
:10601000E9FFFE0EDBCFEAFFEFCF2BF02C6A2BBEA1
:106020002C682BC0E6FF2CC0E6FF82EC2AF0E5527C
:10603000E5522C0EDB2A2D0E01E3DB2AFD0EDB2AB6
:10604000FE0E01E3DB2ADED42C0EDBCF2BF02D0E6F
:10605000DBCF2CF02BC0F3FF2CC0F4FF00D0D9CF46
:10606000E1FFE552E7CFD9FF1200D9CFE6FFE1CF3C
:10607000D9FF020EE126D950FD0F2B6EFF0EDA205C
:106080002C6E2BC0DEFF2CC0DDFFFD0EDBCF2BF016
:10609000FE0EDBCF2CF02D6A2BC0E6FF2CC0E6FFF6
:1060A0002DC0E6FF5A0EE66E070EE66EA5EC3AF03E
:1060B000F56E050EE15EF550D9CFE9FFDACFEAFFC4
:1060C000020EEE5E000EEF5ADECFE6FFDDCFE6FFFA
:1060D0005A0EE66E070EE66E8BDCE552E552E5528F
:1060E000E55200D0D9CFE1FFE552E7CFD9FF12004A
:1060F000D9CFE6FFE1CFD9FF610EE66EE66A020E68
:10610000E66EE66A040EE66EE66A010EE66EE66A82
:106110000A0EE66EE66AFD0EDBCFE6FFFE0EDBCF73
:10612000E6FF8BEC2BF0F56E0C0EE15EF550D950CE
:10613000FB0FE96EFF0EDA20EA6EEE50ED1007E07D
:106140000D0EE66EE66A82EC2AF0E552E552E55263
:10615000E7CFD9FF1200D9CFE6FFE1CFD9FF610E1B
:10616000E66EE66A020EE66EE66A030EE66EE66A22
:10617000010EE66EE66A0A0EE66EE66AFE0EDBCFFA
:10618000E6FFE66A8BEC2BF0F56E0C0EE15EF55047
:10619000D950FC0FE96EFF0EDA20EA6EEE50ED10DA
:1061A00007E00D0EE66EE66A82EC2AF0E552E55253
:1061B000E552E7CFD9FF1200D9CFE6FFE1CFD9FFF3
:1061C000610EE66EE66A020EE66EE66A100EE66E96
:1061D000E66A000EE66EE66A020EE66EE66AFD0EFE
:1061E000DBCFE6FFFE0EDBCFE6FF8BEC2BF0F56E90
:1061F0000C0EE15EF550D950FB0FE96EFF0EDA2070
:10620000EA6EEE50ED1007E00D0EE66EE66A82ECE7
:106210002AF0E552E552E552E7CFD9FF1200D9CF77
:10622000E6FFE1CFD9FF610EE66EE66A020EE66E8A
:10623000E66A080EE66EE66A000EE66EE66A020E92
:10624000E66EE66AFE0EDBCFE6FFE66A8BEC2BF02D
:10625000F56E0C0EE15EF550D950FC0FE96EFF0EA5
:10626000DA20EA6EEE50ED1007E00D0EE66EE66AFB
:1062700082EC2AF0E552E552E552E7CFD9FF120051
:10628000D9CFE6FFE1CFD9FF610EE66EE66A000ED8
:10629000E66EE66A020EE66EE66A000EE66EE66AF4
:1062A000100EE66EE66AFD0EDBCFE6FFFE0EDBCFDC
:1062B000E6FF8BEC2BF0F56E0C0EE15EF550D9503D
:1062C000FB0FE96EFF0EDA20EA6EEE50ED1007E0EC
:1062D0000D0EE66EE66A82EC2AF0E552E552E552D2
:1062E000E7CFD9FF1200D9CFE6FFE1CFD9FF610E8A
:1062F000E66EE66A020EE66EE66AE66EE66A000E94
:10630000E66EE66A100EE66EE66AFE0EDBCFE6FF8C
:10631000E66A8BEC2BF0F56E0C0EE15EF550D95071
:10632000FC0FE96EFF0EDA20EA6EEE50ED1007E08A
:106330000D0EE66EE66A82EC2AF0E552E552E55271
:10634000E7CFD9FF1200D9CFE6FFE1CFD9FFFD0E8D
